{
  "contractName": "DaoTemple",
  "abi": [
    {
      "inputs": [
        {
          "internalType": "contract IVotes",
          "name": "_token",
          "type": "address"
        },
        {
          "internalType": "string",
          "name": "daoName",
          "type": "string"
        },
        {
          "internalType": "uint256",
          "name": "_delay",
          "type": "uint256"
        },
        {
          "internalType": "uint256",
          "name": "_Period",
          "type": "uint256"
        },
        {
          "internalType": "uint256",
          "name": "_Threshold",
          "type": "uint256"
        },
        {
          "internalType": "uint256",
          "name": "_Quorum",
          "type": "uint256"
        }
      ],
      "stateMutability": "nonpayable",
      "type": "constructor"
    },
    {
      "inputs": [],
      "name": "Empty",
      "type": "error"
    },
    {
      "anonymous": false,
      "inputs": [
        {
          "indexed": false,
          "internalType": "uint256",
          "name": "proposalId",
          "type": "uint256"
        }
      ],
      "name": "ProposalCanceled",
      "type": "event"
    },
    {
      "anonymous": false,
      "inputs": [
        {
          "indexed": false,
          "internalType": "uint256",
          "name": "proposalId",
          "type": "uint256"
        },
        {
          "indexed": false,
          "internalType": "address",
          "name": "proposer",
          "type": "address"
        },
        {
          "indexed": false,
          "internalType": "address[]",
          "name": "targets",
          "type": "address[]"
        },
        {
          "indexed": false,
          "internalType": "uint256[]",
          "name": "values",
          "type": "uint256[]"
        },
        {
          "indexed": false,
          "internalType": "string[]",
          "name": "signatures",
          "type": "string[]"
        },
        {
          "indexed": false,
          "internalType": "bytes[]",
          "name": "calldatas",
          "type": "bytes[]"
        },
        {
          "indexed": false,
          "internalType": "uint256",
          "name": "startBlock",
          "type": "uint256"
        },
        {
          "indexed": false,
          "internalType": "uint256",
          "name": "endBlock",
          "type": "uint256"
        },
        {
          "indexed": false,
          "internalType": "string",
          "name": "description",
          "type": "string"
        }
      ],
      "name": "ProposalCreated",
      "type": "event"
    },
    {
      "anonymous": false,
      "inputs": [
        {
          "indexed": false,
          "internalType": "uint256",
          "name": "proposalId",
          "type": "uint256"
        }
      ],
      "name": "ProposalExecuted",
      "type": "event"
    },
    {
      "anonymous": false,
      "inputs": [
        {
          "indexed": false,
          "internalType": "uint256",
          "name": "oldProposalThreshold",
          "type": "uint256"
        },
        {
          "indexed": false,
          "internalType": "uint256",
          "name": "newProposalThreshold",
          "type": "uint256"
        }
      ],
      "name": "ProposalThresholdSet",
      "type": "event"
    },
    {
      "anonymous": false,
      "inputs": [
        {
          "indexed": false,
          "internalType": "uint256",
          "name": "oldQuorumNumerator",
          "type": "uint256"
        },
        {
          "indexed": false,
          "internalType": "uint256",
          "name": "newQuorumNumerator",
          "type": "uint256"
        }
      ],
      "name": "QuorumNumeratorUpdated",
      "type": "event"
    },
    {
      "anonymous": false,
      "inputs": [
        {
          "indexed": true,
          "internalType": "address",
          "name": "voter",
          "type": "address"
        },
        {
          "indexed": false,
          "internalType": "uint256",
          "name": "proposalId",
          "type": "uint256"
        },
        {
          "indexed": false,
          "internalType": "uint8",
          "name": "support",
          "type": "uint8"
        },
        {
          "indexed": false,
          "internalType": "uint256",
          "name": "weight",
          "type": "uint256"
        },
        {
          "indexed": false,
          "internalType": "string",
          "name": "reason",
          "type": "string"
        }
      ],
      "name": "VoteCast",
      "type": "event"
    },
    {
      "anonymous": false,
      "inputs": [
        {
          "indexed": true,
          "internalType": "address",
          "name": "voter",
          "type": "address"
        },
        {
          "indexed": false,
          "internalType": "uint256",
          "name": "proposalId",
          "type": "uint256"
        },
        {
          "indexed": false,
          "internalType": "uint8",
          "name": "support",
          "type": "uint8"
        },
        {
          "indexed": false,
          "internalType": "uint256",
          "name": "weight",
          "type": "uint256"
        },
        {
          "indexed": false,
          "internalType": "string",
          "name": "reason",
          "type": "string"
        },
        {
          "indexed": false,
          "internalType": "bytes",
          "name": "params",
          "type": "bytes"
        }
      ],
      "name": "VoteCastWithParams",
      "type": "event"
    },
    {
      "anonymous": false,
      "inputs": [
        {
          "indexed": false,
          "internalType": "uint256",
          "name": "oldVotingDelay",
          "type": "uint256"
        },
        {
          "indexed": false,
          "internalType": "uint256",
          "name": "newVotingDelay",
          "type": "uint256"
        }
      ],
      "name": "VotingDelaySet",
      "type": "event"
    },
    {
      "anonymous": false,
      "inputs": [
        {
          "indexed": false,
          "internalType": "uint256",
          "name": "oldVotingPeriod",
          "type": "uint256"
        },
        {
          "indexed": false,
          "internalType": "uint256",
          "name": "newVotingPeriod",
          "type": "uint256"
        }
      ],
      "name": "VotingPeriodSet",
      "type": "event"
    },
    {
      "inputs": [],
      "name": "BALLOT_TYPEHASH",
      "outputs": [
        {
          "internalType": "bytes32",
          "name": "",
          "type": "bytes32"
        }
      ],
      "stateMutability": "view",
      "type": "function"
    },
    {
      "inputs": [],
      "name": "COUNTING_MODE",
      "outputs": [
        {
          "internalType": "string",
          "name": "",
          "type": "string"
        }
      ],
      "stateMutability": "pure",
      "type": "function"
    },
    {
      "inputs": [],
      "name": "EXTENDED_BALLOT_TYPEHASH",
      "outputs": [
        {
          "internalType": "bytes32",
          "name": "",
          "type": "bytes32"
        }
      ],
      "stateMutability": "view",
      "type": "function"
    },
    {
      "inputs": [
        {
          "internalType": "uint256",
          "name": "proposalId",
          "type": "uint256"
        },
        {
          "internalType": "uint8",
          "name": "support",
          "type": "uint8"
        }
      ],
      "name": "castVote",
      "outputs": [
        {
          "internalType": "uint256",
          "name": "",
          "type": "uint256"
        }
      ],
      "stateMutability": "nonpayable",
      "type": "function"
    },
    {
      "inputs": [
        {
          "internalType": "uint256",
          "name": "proposalId",
          "type": "uint256"
        },
        {
          "internalType": "uint8",
          "name": "support",
          "type": "uint8"
        },
        {
          "internalType": "uint8",
          "name": "v",
          "type": "uint8"
        },
        {
          "internalType": "bytes32",
          "name": "r",
          "type": "bytes32"
        },
        {
          "internalType": "bytes32",
          "name": "s",
          "type": "bytes32"
        }
      ],
      "name": "castVoteBySig",
      "outputs": [
        {
          "internalType": "uint256",
          "name": "",
          "type": "uint256"
        }
      ],
      "stateMutability": "nonpayable",
      "type": "function"
    },
    {
      "inputs": [
        {
          "internalType": "uint256",
          "name": "proposalId",
          "type": "uint256"
        },
        {
          "internalType": "uint8",
          "name": "support",
          "type": "uint8"
        },
        {
          "internalType": "string",
          "name": "reason",
          "type": "string"
        }
      ],
      "name": "castVoteWithReason",
      "outputs": [
        {
          "internalType": "uint256",
          "name": "",
          "type": "uint256"
        }
      ],
      "stateMutability": "nonpayable",
      "type": "function"
    },
    {
      "inputs": [
        {
          "internalType": "uint256",
          "name": "proposalId",
          "type": "uint256"
        },
        {
          "internalType": "uint8",
          "name": "support",
          "type": "uint8"
        },
        {
          "internalType": "string",
          "name": "reason",
          "type": "string"
        },
        {
          "internalType": "bytes",
          "name": "params",
          "type": "bytes"
        }
      ],
      "name": "castVoteWithReasonAndParams",
      "outputs": [
        {
          "internalType": "uint256",
          "name": "",
          "type": "uint256"
        }
      ],
      "stateMutability": "nonpayable",
      "type": "function"
    },
    {
      "inputs": [
        {
          "internalType": "uint256",
          "name": "proposalId",
          "type": "uint256"
        },
        {
          "internalType": "uint8",
          "name": "support",
          "type": "uint8"
        },
        {
          "internalType": "string",
          "name": "reason",
          "type": "string"
        },
        {
          "internalType": "bytes",
          "name": "params",
          "type": "bytes"
        },
        {
          "internalType": "uint8",
          "name": "v",
          "type": "uint8"
        },
        {
          "internalType": "bytes32",
          "name": "r",
          "type": "bytes32"
        },
        {
          "internalType": "bytes32",
          "name": "s",
          "type": "bytes32"
        }
      ],
      "name": "castVoteWithReasonAndParamsBySig",
      "outputs": [
        {
          "internalType": "uint256",
          "name": "",
          "type": "uint256"
        }
      ],
      "stateMutability": "nonpayable",
      "type": "function"
    },
    {
      "inputs": [
        {
          "internalType": "address[]",
          "name": "targets",
          "type": "address[]"
        },
        {
          "internalType": "uint256[]",
          "name": "values",
          "type": "uint256[]"
        },
        {
          "internalType": "bytes[]",
          "name": "calldatas",
          "type": "bytes[]"
        },
        {
          "internalType": "bytes32",
          "name": "descriptionHash",
          "type": "bytes32"
        }
      ],
      "name": "execute",
      "outputs": [
        {
          "internalType": "uint256",
          "name": "",
          "type": "uint256"
        }
      ],
      "stateMutability": "payable",
      "type": "function"
    },
    {
      "inputs": [
        {
          "internalType": "address",
          "name": "account",
          "type": "address"
        },
        {
          "internalType": "uint256",
          "name": "blockNumber",
          "type": "uint256"
        }
      ],
      "name": "getVotes",
      "outputs": [
        {
          "internalType": "uint256",
          "name": "",
          "type": "uint256"
        }
      ],
      "stateMutability": "view",
      "type": "function"
    },
    {
      "inputs": [
        {
          "internalType": "address",
          "name": "account",
          "type": "address"
        },
        {
          "internalType": "uint256",
          "name": "blockNumber",
          "type": "uint256"
        },
        {
          "internalType": "bytes",
          "name": "params",
          "type": "bytes"
        }
      ],
      "name": "getVotesWithParams",
      "outputs": [
        {
          "internalType": "uint256",
          "name": "",
          "type": "uint256"
        }
      ],
      "stateMutability": "view",
      "type": "function"
    },
    {
      "inputs": [
        {
          "internalType": "uint256",
          "name": "proposalId",
          "type": "uint256"
        },
        {
          "internalType": "address",
          "name": "account",
          "type": "address"
        }
      ],
      "name": "hasVoted",
      "outputs": [
        {
          "internalType": "bool",
          "name": "",
          "type": "bool"
        }
      ],
      "stateMutability": "view",
      "type": "function"
    },
    {
      "inputs": [
        {
          "internalType": "address[]",
          "name": "targets",
          "type": "address[]"
        },
        {
          "internalType": "uint256[]",
          "name": "values",
          "type": "uint256[]"
        },
        {
          "internalType": "bytes[]",
          "name": "calldatas",
          "type": "bytes[]"
        },
        {
          "internalType": "bytes32",
          "name": "descriptionHash",
          "type": "bytes32"
        }
      ],
      "name": "hashProposal",
      "outputs": [
        {
          "internalType": "uint256",
          "name": "",
          "type": "uint256"
        }
      ],
      "stateMutability": "pure",
      "type": "function"
    },
    {
      "inputs": [],
      "name": "name",
      "outputs": [
        {
          "internalType": "string",
          "name": "",
          "type": "string"
        }
      ],
      "stateMutability": "view",
      "type": "function"
    },
    {
      "inputs": [
        {
          "internalType": "address",
          "name": "",
          "type": "address"
        },
        {
          "internalType": "address",
          "name": "",
          "type": "address"
        },
        {
          "internalType": "uint256[]",
          "name": "",
          "type": "uint256[]"
        },
        {
          "internalType": "uint256[]",
          "name": "",
          "type": "uint256[]"
        },
        {
          "internalType": "bytes",
          "name": "",
          "type": "bytes"
        }
      ],
      "name": "onERC1155BatchReceived",
      "outputs": [
        {
          "internalType": "bytes4",
          "name": "",
          "type": "bytes4"
        }
      ],
      "stateMutability": "nonpayable",
      "type": "function"
    },
    {
      "inputs": [
        {
          "internalType": "address",
          "name": "",
          "type": "address"
        },
        {
          "internalType": "address",
          "name": "",
          "type": "address"
        },
        {
          "internalType": "uint256",
          "name": "",
          "type": "uint256"
        },
        {
          "internalType": "uint256",
          "name": "",
          "type": "uint256"
        },
        {
          "internalType": "bytes",
          "name": "",
          "type": "bytes"
        }
      ],
      "name": "onERC1155Received",
      "outputs": [
        {
          "internalType": "bytes4",
          "name": "",
          "type": "bytes4"
        }
      ],
      "stateMutability": "nonpayable",
      "type": "function"
    },
    {
      "inputs": [
        {
          "internalType": "address",
          "name": "",
          "type": "address"
        },
        {
          "internalType": "address",
          "name": "",
          "type": "address"
        },
        {
          "internalType": "uint256",
          "name": "",
          "type": "uint256"
        },
        {
          "internalType": "bytes",
          "name": "",
          "type": "bytes"
        }
      ],
      "name": "onERC721Received",
      "outputs": [
        {
          "internalType": "bytes4",
          "name": "",
          "type": "bytes4"
        }
      ],
      "stateMutability": "nonpayable",
      "type": "function"
    },
    {
      "inputs": [
        {
          "internalType": "uint256",
          "name": "proposalId",
          "type": "uint256"
        }
      ],
      "name": "proposalDeadline",
      "outputs": [
        {
          "internalType": "uint256",
          "name": "",
          "type": "uint256"
        }
      ],
      "stateMutability": "view",
      "type": "function"
    },
    {
      "inputs": [
        {
          "internalType": "uint256",
          "name": "proposalId",
          "type": "uint256"
        }
      ],
      "name": "proposalSnapshot",
      "outputs": [
        {
          "internalType": "uint256",
          "name": "",
          "type": "uint256"
        }
      ],
      "stateMutability": "view",
      "type": "function"
    },
    {
      "inputs": [
        {
          "internalType": "uint256",
          "name": "proposalId",
          "type": "uint256"
        }
      ],
      "name": "proposalVotes",
      "outputs": [
        {
          "internalType": "uint256",
          "name": "againstVotes",
          "type": "uint256"
        },
        {
          "internalType": "uint256",
          "name": "forVotes",
          "type": "uint256"
        },
        {
          "internalType": "uint256",
          "name": "abstainVotes",
          "type": "uint256"
        }
      ],
      "stateMutability": "view",
      "type": "function"
    },
    {
      "inputs": [
        {
          "internalType": "address[]",
          "name": "targets",
          "type": "address[]"
        },
        {
          "internalType": "uint256[]",
          "name": "values",
          "type": "uint256[]"
        },
        {
          "internalType": "bytes[]",
          "name": "calldatas",
          "type": "bytes[]"
        },
        {
          "internalType": "string",
          "name": "description",
          "type": "string"
        }
      ],
      "name": "propose",
      "outputs": [
        {
          "internalType": "uint256",
          "name": "",
          "type": "uint256"
        }
      ],
      "stateMutability": "nonpayable",
      "type": "function"
    },
    {
      "inputs": [],
      "name": "quorumDenominator",
      "outputs": [
        {
          "internalType": "uint256",
          "name": "",
          "type": "uint256"
        }
      ],
      "stateMutability": "view",
      "type": "function"
    },
    {
      "inputs": [],
      "name": "quorumNumerator",
      "outputs": [
        {
          "internalType": "uint256",
          "name": "",
          "type": "uint256"
        }
      ],
      "stateMutability": "view",
      "type": "function"
    },
    {
      "inputs": [
        {
          "internalType": "address",
          "name": "target",
          "type": "address"
        },
        {
          "internalType": "uint256",
          "name": "value",
          "type": "uint256"
        },
        {
          "internalType": "bytes",
          "name": "data",
          "type": "bytes"
        }
      ],
      "name": "relay",
      "outputs": [],
      "stateMutability": "nonpayable",
      "type": "function"
    },
    {
      "inputs": [
        {
          "internalType": "uint256",
          "name": "newProposalThreshold",
          "type": "uint256"
        }
      ],
      "name": "setProposalThreshold",
      "outputs": [],
      "stateMutability": "nonpayable",
      "type": "function"
    },
    {
      "inputs": [
        {
          "internalType": "uint256",
          "name": "newVotingDelay",
          "type": "uint256"
        }
      ],
      "name": "setVotingDelay",
      "outputs": [],
      "stateMutability": "nonpayable",
      "type": "function"
    },
    {
      "inputs": [
        {
          "internalType": "uint256",
          "name": "newVotingPeriod",
          "type": "uint256"
        }
      ],
      "name": "setVotingPeriod",
      "outputs": [],
      "stateMutability": "nonpayable",
      "type": "function"
    },
    {
      "inputs": [
        {
          "internalType": "uint256",
          "name": "proposalId",
          "type": "uint256"
        }
      ],
      "name": "state",
      "outputs": [
        {
          "internalType": "enum IGovernor.ProposalState",
          "name": "",
          "type": "uint8"
        }
      ],
      "stateMutability": "view",
      "type": "function"
    },
    {
      "inputs": [
        {
          "internalType": "bytes4",
          "name": "interfaceId",
          "type": "bytes4"
        }
      ],
      "name": "supportsInterface",
      "outputs": [
        {
          "internalType": "bool",
          "name": "",
          "type": "bool"
        }
      ],
      "stateMutability": "view",
      "type": "function"
    },
    {
      "inputs": [],
      "name": "token",
      "outputs": [
        {
          "internalType": "contract IVotes",
          "name": "",
          "type": "address"
        }
      ],
      "stateMutability": "view",
      "type": "function"
    },
    {
      "inputs": [
        {
          "internalType": "uint256",
          "name": "newQuorumNumerator",
          "type": "uint256"
        }
      ],
      "name": "updateQuorumNumerator",
      "outputs": [],
      "stateMutability": "nonpayable",
      "type": "function"
    },
    {
      "inputs": [],
      "name": "version",
      "outputs": [
        {
          "internalType": "string",
          "name": "",
          "type": "string"
        }
      ],
      "stateMutability": "view",
      "type": "function"
    },
    {
      "stateMutability": "payable",
      "type": "receive"
    },
    {
      "inputs": [],
      "name": "votingDelay",
      "outputs": [
        {
          "internalType": "uint256",
          "name": "",
          "type": "uint256"
        }
      ],
      "stateMutability": "view",
      "type": "function"
    },
    {
      "inputs": [],
      "name": "votingPeriod",
      "outputs": [
        {
          "internalType": "uint256",
          "name": "",
          "type": "uint256"
        }
      ],
      "stateMutability": "view",
      "type": "function"
    },
    {
      "inputs": [
        {
          "internalType": "uint256",
          "name": "blockNumber",
          "type": "uint256"
        }
      ],
      "name": "quorum",
      "outputs": [
        {
          "internalType": "uint256",
          "name": "",
          "type": "uint256"
        }
      ],
      "stateMutability": "view",
      "type": "function"
    },
    {
      "inputs": [],
      "name": "proposalThreshold",
      "outputs": [
        {
          "internalType": "uint256",
          "name": "",
          "type": "uint256"
        }
      ],
      "stateMutability": "view",
      "type": "function"
    }
  ],
  "bytecode": "0x6101606040523480156200001257600080fd5b50604051620038d8380380620038d883398101604081905262000035916200034d565b808685858589806200005b6040805180820190915260018152603160f81b602082015290565b815160209283012081519183019190912060e08290526101008190524660a0818152604080517f8b73c3c69bb8fe3d512ecc4cf759cc79239f7b179b0ffacaa9a75d522b39400f818801819052818301969096526060810194909452608080850193909352308483018190528151808603909301835260c094850190915281519190950120905291909152610120526000620000f8828262000501565b506200010690508362000144565b620001118262000185565b6200011c816200022c565b5050506001600160a01b03166101405262000137816200026d565b50505050505050620005cd565b60045460408051918252602082018390527fc565b045403dc03c2eea82b81a0465edad9e2e7fc4d97e11421c209da93d7a93910160405180910390a1600455565b60008111620001eb5760405162461bcd60e51b815260206004820152602760248201527f476f7665726e6f7253657474696e67733a20766f74696e6720706572696f6420604482015266746f6f206c6f7760c81b60648201526084015b60405180910390fd5b60055460408051918252602082018390527f7e3f7f0708a84de9203036abaa450dccc85ad5ff52f78c170f3edb55cf5e8828910160405180910390a1600555565b60065460408051918252602082018390527fccb45da8d5717e6c4544694297c4ba5cf151d455c9bb0ed4fc7a38411bc05461910160405180910390a1600655565b6064811115620002f25760405162461bcd60e51b815260206004820152604360248201527f476f7665726e6f72566f74657351756f72756d4672616374696f6e3a2071756f60448201527f72756d4e756d657261746f72206f7665722071756f72756d44656e6f6d696e616064820152623a37b960e91b608482015260a401620001e2565b600880549082905560408051828152602081018490527f0553476bf02ef2726e8ce5ced78d63e26e602e4a2257b1f559418e24b4633997910160405180910390a15050565b634e487b7160e01b600052604160045260246000fd5b60008060008060008060c087890312156200036757600080fd5b86516001600160a01b03811681146200037f57600080fd5b602088810151919750906001600160401b03808211156200039f57600080fd5b818a0191508a601f830112620003b457600080fd5b815181811115620003c957620003c962000337565b604051601f8201601f19908116603f01168101908382118183101715620003f457620003f462000337565b816040528281528d868487010111156200040d57600080fd5b600093505b8284101562000431578484018601518185018701529285019262000412565b82841115620004435760008684830101525b809a5050505050505060408701519350606087015192506080870151915060a087015190509295509295509295565b600181811c908216806200048757607f821691505b602082108103620004a857634e487b7160e01b600052602260045260246000fd5b50919050565b601f821115620004fc57600081815260208120601f850160051c81016020861015620004d75750805b601f850160051c820191505b81811015620004f857828155600101620004e3565b5050505b505050565b81516001600160401b038111156200051d576200051d62000337565b62000535816200052e845462000472565b84620004ae565b602080601f8311600181146200056d5760008415620005545750858301515b600019600386901b1c1916600185901b178555620004f8565b600085815260208120601f198616915b828110156200059e578886015182559484019460019091019084016200057d565b5085821015620005bd5787850151600019600388901b60f8161c191681555b5050505050600190811b01905550565b60805160a05160c05160e0516101005161012051610140516132a2620006366000396000818161081a01528181611bb90152611d7a01526000611e8b01526000611eda01526000611eb501526000611e0e01526000611e3801526000611e6201526132a26000f3fe6080604052600436106102535760003560e01c80637b3c71d311610138578063c59057e4116100b0578063eb9019d41161007f578063f23a6e6111610064578063f23a6e61146107a3578063f8ce560a146107e8578063fc0c546a1461080857600080fd5b8063eb9019d414610763578063ece40cc11461078357600080fd5b8063c59057e4146106a9578063dd4e2ba5146106c9578063deaaa7cc1461070f578063ea0217cf1461074357600080fd5b8063a7713a7011610107578063bc197c81116100ec578063bc197c8114610624578063c01f9e3714610669578063c28bc2fa1461068957600080fd5b8063a7713a70146105fa578063b58131b01461060f57600080fd5b80637b3c71d3146105865780637d5e81e2146105a657806397c3d334146105c65780639a802a6d146105da57600080fd5b80633932abb1116101cb578063544ffc9c1161019a578063567813881161017f57806356781388146105265780635f398a141461054657806370b0f6601461056657600080fd5b8063544ffc9c1461048b57806354fd4d50146104e057600080fd5b80633932abb1146103df5780633bccf4fd146103f45780633e4f49e614610414578063438596321461044157600080fd5b806306fdde03116102225780632656227d116102075780632656227d146103785780632d63f6931461038b5780632fe3e261146103ab57600080fd5b806306fdde03146102f9578063150b7a021461031b57600080fd5b806301ffc9a71461026157806302a251a31461029657806303420181146102b957806306f3f9e6146102d957600080fd5b3661025c57005b005b600080fd5b34801561026d57600080fd5b5061028161027c36600461252b565b610854565b60405190151581526020015b60405180910390f35b3480156102a257600080fd5b506102ab610925565b60405190815260200161028d565b3480156102c557600080fd5b506102ab6102d4366004612673565b610935565b3480156102e557600080fd5b5061025a6102f436600461271a565b610a2d565b34801561030557600080fd5b5061030e610aa4565b60405161028d919061278f565b34801561032757600080fd5b5061035f6103363660046127b9565b7f150b7a0200000000000000000000000000000000000000000000000000000000949350505050565b6040516001600160e01b0319909116815260200161028d565b6102ab610386366004612992565b610b36565b34801561039757600080fd5b506102ab6103a636600461271a565b610c79565b3480156103b757600080fd5b506102ab7fb3b3f3b703cd84ce352197dcff232b1b5d3cfb2025ce47cf04742d0651f1af8881565b3480156103eb57600080fd5b506102ab610cb2565b34801561040057600080fd5b506102ab61040f366004612a22565b610cbd565b34801561042057600080fd5b5061043461042f36600461271a565b610d33565b60405161028d9190612a86565b34801561044d57600080fd5b5061028161045c366004612aae565b60008281526007602090815260408083206001600160a01b038516845260030190915290205460ff1692915050565b34801561049757600080fd5b506104c56104a636600461271a565b6000908152600760205260409020805460018201546002909201549092565b6040805193845260208401929092529082015260600161028d565b3480156104ec57600080fd5b5060408051808201909152600181527f3100000000000000000000000000000000000000000000000000000000000000602082015261030e565b34801561053257600080fd5b506102ab610541366004612ada565b610e42565b34801561055257600080fd5b506102ab610561366004612afd565b610e6b565b34801561057257600080fd5b5061025a61058136600461271a565b610eb5565b34801561059257600080fd5b506102ab6105a1366004612b81565b610f24565b3480156105b257600080fd5b506102ab6105c1366004612bdb565b610f76565b3480156105d257600080fd5b5060646102ab565b3480156105e657600080fd5b506102ab6105f5366004612c90565b6112d9565b34801561060657600080fd5b506008546102ab565b34801561061b57600080fd5b506102ab6112f0565b34801561063057600080fd5b5061035f61063f366004612ce7565b7fbc197c810000000000000000000000000000000000000000000000000000000095945050505050565b34801561067557600080fd5b506102ab61068436600461271a565b6112fb565b34801561069557600080fd5b5061025a6106a4366004612d77565b61132b565b3480156106b557600080fd5b506102ab6106c4366004612992565b6113da565b3480156106d557600080fd5b506040805180820190915260208082527f737570706f72743d627261766f2671756f72756d3d666f722c6162737461696e9082015261030e565b34801561071b57600080fd5b506102ab7f150214d74d59b7d1e90c73fc22ef3d991dd0a76b046543d4d80ab92d2a50328f81565b34801561074f57600080fd5b5061025a61075e36600461271a565b611414565b34801561076f57600080fd5b506102ab61077e366004612db9565b611483565b34801561078f57600080fd5b5061025a61079e36600461271a565b6114a4565b3480156107af57600080fd5b5061035f6107be366004612de3565b7ff23a6e610000000000000000000000000000000000000000000000000000000095945050505050565b3480156107f457600080fd5b506102ab61080336600461271a565b611513565b34801561081457600080fd5b5061083c7f000000000000000000000000000000000000000000000000000000000000000081565b6040516001600160a01b03909116815260200161028d565b60006001600160e01b031982167fbf26d8970000000000000000000000000000000000000000000000000000000014806108b757506001600160e01b031982167f79dd796f00000000000000000000000000000000000000000000000000000000145b806108eb57506001600160e01b031982167f4e2312e000000000000000000000000000000000000000000000000000000000145b8061091f57507f01ffc9a7000000000000000000000000000000000000000000000000000000006001600160e01b03198316145b92915050565b600061093060055490565b905090565b6000806109d96109d17fb3b3f3b703cd84ce352197dcff232b1b5d3cfb2025ce47cf04742d0651f1af888c8c8c8c604051610971929190612e48565b60405180910390208b805190602001206040516020016109b6959493929190948552602085019390935260ff9190911660408401526060830152608082015260a00190565b6040516020818303038152906040528051906020012061151e565b868686611587565b9050610a1f8a828b8b8b8080601f0160208091040260200160405190810160405280939291908181526020018383808284376000920191909152508d92506115a5915050565b9a9950505050505050505050565b333014610a815760405162461bcd60e51b815260206004820152601860248201527f476f7665726e6f723a206f6e6c79476f7665726e616e6365000000000000000060448201526064015b60405180910390fd5b610a98565b80610a916002611725565b03610a8657505b610aa1816117e2565b50565b606060008054610ab390612e58565b80601f0160208091040260200160405190810160405280929190818152602001828054610adf90612e58565b8015610b2c5780601f10610b0157610100808354040283529160200191610b2c565b820191906000526020600020905b815481529060010190602001808311610b0f57829003601f168201915b5050505050905090565b600080610b45868686866113da565b90506000610b5282610d33565b90506004816007811115610b6857610b68612a70565b1480610b8557506005816007811115610b8357610b83612a70565b145b610bf75760405162461bcd60e51b815260206004820152602160248201527f476f7665726e6f723a2070726f706f73616c206e6f742073756363657373667560448201527f6c000000000000000000000000000000000000000000000000000000000000006064820152608401610a78565b600082815260016020818152604092839020600201805460ff191690921790915590518381527f712ae1383f79ac853f8d882153778e0260ef8f03b504e2866e0593e04d2b291f910160405180910390a1610c5582888888886118c4565b610c628288888888611950565b610c6f82888888886118c4565b5095945050505050565b600081815260016020908152604080832081519283019091525467ffffffffffffffff16908190525b67ffffffffffffffff1692915050565b600061093060045490565b604080517f150214d74d59b7d1e90c73fc22ef3d991dd0a76b046543d4d80ab92d2a50328f602082015290810186905260ff851660608201526000908190610d0b906109d1906080016109b6565b9050610d2887828860405180602001604052806000815250611a4f565b979650505050505050565b6000818152600160205260408120600281015460ff1615610d575750600792915050565b6002810154610100900460ff1615610d725750600292915050565b6000610d7d84610c79565b905080600003610dcf5760405162461bcd60e51b815260206004820152601d60248201527f476f7665726e6f723a20756e6b6e6f776e2070726f706f73616c2069640000006044820152606401610a78565b438110610de0575060009392505050565b6000610deb856112fb565b9050438110610dff57506001949350505050565b610e0885611a7b565b8015610e27575060008581526007602052604090208054600190910154115b15610e3757506004949350505050565b506003949350505050565b600080339050610e6384828560405180602001604052806000815250611a4f565b949350505050565b600080339050610d2887828888888080601f0160208091040260200160405190810160405280939291908181526020018383808284376000920191909152508a92506115a5915050565b333014610f045760405162461bcd60e51b815260206004820152601860248201527f476f7665726e6f723a206f6e6c79476f7665726e616e636500000000000000006044820152606401610a78565b610f1b565b80610f146002611725565b03610f0957505b610aa181611ab2565b600080339050610f6c86828787878080601f016020809104026020016040519081016040528093929190818152602001838380828437600092019190915250611a4f92505050565b9695505050505050565b6000610f806112f0565b610f8f3361077e600143612ea8565b10156110035760405162461bcd60e51b815260206004820152603160248201527f476f7665726e6f723a2070726f706f73657220766f7465732062656c6f77207060448201527f726f706f73616c207468726573686f6c640000000000000000000000000000006064820152608401610a78565b600061101886868686805190602001206113da565b905084518651146110755760405162461bcd60e51b815260206004820152602160248201527f476f7665726e6f723a20696e76616c69642070726f706f73616c206c656e67746044820152600d60fb1b6064820152608401610a78565b83518651146110d05760405162461bcd60e51b815260206004820152602160248201527f476f7665726e6f723a20696e76616c69642070726f706f73616c206c656e67746044820152600d60fb1b6064820152608401610a78565b60008651116111215760405162461bcd60e51b815260206004820152601860248201527f476f7665726e6f723a20656d7074792070726f706f73616c00000000000000006044820152606401610a78565b6000818152600160209081526040918290208251918201909252815467ffffffffffffffff1690819052156111be5760405162461bcd60e51b815260206004820152602160248201527f476f7665726e6f723a2070726f706f73616c20616c726561647920657869737460448201527f73000000000000000000000000000000000000000000000000000000000000006064820152608401610a78565b60006111d06111cb610cb2565b611af3565b6111d943611af3565b6111e39190612ebf565b905060006111f26111cb610925565b6111fc9083612ebf565b835467ffffffffffffffff191667ffffffffffffffff8416178455905060018301805467ffffffffffffffff191667ffffffffffffffff83161790557f7d84a6263ae0d98d3329bd7b46bb4e8d6f98cd35a7adb45c274c8b7fd5ebd5e084338b8b8d5167ffffffffffffffff811115611277576112776125b4565b6040519080825280602002602001820160405280156112aa57816020015b60608152602001906001900390816112955790505b508c88888e6040516112c499989796959493929190612fb4565b60405180910390a15091979650505050505050565b60006112e6848484611b77565b90505b9392505050565b600061093060065490565b600081815260016020818152604080842081519283019091529091015467ffffffffffffffff1690819052610ca2565b33301461137a5760405162461bcd60e51b815260206004820152601860248201527f476f7665726e6f723a206f6e6c79476f7665726e616e636500000000000000006044820152606401610a78565b611391565b8061138a6002611725565b0361137f57505b6113d38483838080601f016020809104026020016040519081016040528093929190818152602001838380828437600092019190915250889250611c26915050565b5050505050565b6000848484846040516020016113f394939291906130a6565b60408051601f19818403018152919052805160209091012095945050505050565b3330146114635760405162461bcd60e51b815260206004820152601860248201527f476f7665726e6f723a206f6e6c79476f7665726e616e636500000000000000006044820152606401610a78565b61147a565b806114736002611725565b0361146857505b610aa181611c4c565b60006112e9838361149f60408051602081019091526000815290565b611b77565b3330146114f35760405162461bcd60e51b815260206004820152601860248201527f476f7665726e6f723a206f6e6c79476f7665726e616e636500000000000000006044820152606401610a78565b61150a565b806115036002611725565b036114f857505b610aa181611d03565b600061091f82611d44565b600061091f61152b611e01565b836040517f19010000000000000000000000000000000000000000000000000000000000006020820152602281018390526042810182905260009060620160405160208183030381529060405280519060200120905092915050565b600080600061159887878787611f28565b91509150610c6f81612015565b60008581526001602081905260408220906115bf88610d33565b60078111156115d0576115d0612a70565b146116435760405162461bcd60e51b815260206004820152602360248201527f476f7665726e6f723a20766f7465206e6f742063757272656e746c792061637460448201527f69766500000000000000000000000000000000000000000000000000000000006064820152608401610a78565b6040805160208101909152815467ffffffffffffffff169081905260009061166d90889086611b77565b905061167c88888884886121cb565b83516000036116d157866001600160a01b03167fb8e138887d0aa13bab447e82de9d5c1777041ecd21ca36ba824ff1e6c07ddda4898884896040516116c494939291906130f1565b60405180910390a2610d28565b866001600160a01b03167fe2babfbac5889a709b63bb7f598b324e08bc5a4fb9ec647fb3cbc9ec07eb87128988848989604051611712959493929190613119565b60405180910390a2979650505050505050565b600061174d8254600f81810b700100000000000000000000000000000000909204900b131590565b15611784576040517f3db2a12a00000000000000000000000000000000000000000000000000000000815260040160405180910390fd5b508054600f0b6000818152600180840160205260408220805492905583547fffffffffffffffffffffffffffffffff000000000000000000000000000000001692016fffffffffffffffffffffffffffffffff169190911790915590565b606481111561187f5760405162461bcd60e51b815260206004820152604360248201527f476f7665726e6f72566f74657351756f72756d4672616374696f6e3a2071756f60448201527f72756d4e756d657261746f72206f7665722071756f72756d44656e6f6d696e6160648201527f746f720000000000000000000000000000000000000000000000000000000000608482015260a401610a78565b600880549082905560408051828152602081018490527f0553476bf02ef2726e8ce5ced78d63e26e602e4a2257b1f559418e24b4633997910160405180910390a15050565b6113d3565b845181101561194857306001600160a01b03168582815181106118ee576118ee61315f565b60200260200101516001600160a01b031603611938576119388382815181106119195761191961315f565b602002602001015180519060200120600261236390919063ffffffff16565b61194181613175565b90506118c9565b505050505050565b600060405180606001604052806027815260200161321d60279139905060005b8551811015611a465760008087838151811061198e5761198e61315f565b60200260200101516001600160a01b03168784815181106119b1576119b161315f565b60200260200101518785815181106119cb576119cb61315f565b60200260200101516040516119e0919061318e565b60006040518083038185875af1925050503d8060008114611a1d576040519150601f19603f3d011682016040523d82523d6000602084013e611a22565b606091505b5091509150611a328282866123b5565b50505080611a3f90613175565b9050611970565b50505050505050565b6000611a7285858585611a6d60408051602081019091526000815290565b6115a5565b95945050505050565b600081815260076020526040812060028101546001820154611a9d91906131aa565b611aa961080385610c79565b11159392505050565b60045460408051918252602082018390527fc565b045403dc03c2eea82b81a0465edad9e2e7fc4d97e11421c209da93d7a93910160405180910390a1600455565b600067ffffffffffffffff821115611b735760405162461bcd60e51b815260206004820152602660248201527f53616665436173743a2076616c756520646f65736e27742066697420696e203660448201527f34206269747300000000000000000000000000000000000000000000000000006064820152608401610a78565b5090565b6040517f3a46b1a80000000000000000000000000000000000000000000000000000000081526001600160a01b038481166004830152602482018490526000917f000000000000000000000000000000000000000000000000000000000000000090911690633a46b1a890604401602060405180830381865afa158015611c02573d6000803e3d6000fd5b505050506040513d601f19601f820116820180604052508101906112e691906131c2565b60606112e6848484604051806060016040528060298152602001613244602991396123ee565b60008111611cc25760405162461bcd60e51b815260206004820152602760248201527f476f7665726e6f7253657474696e67733a20766f74696e6720706572696f642060448201527f746f6f206c6f77000000000000000000000000000000000000000000000000006064820152608401610a78565b60055460408051918252602082018390527f7e3f7f0708a84de9203036abaa450dccc85ad5ff52f78c170f3edb55cf5e8828910160405180910390a1600555565b60065460408051918252602082018390527fccb45da8d5717e6c4544694297c4ba5cf151d455c9bb0ed4fc7a38411bc05461910160405180910390a1600655565b600060646008546040517f8e539e8c000000000000000000000000000000000000000000000000000000008152600481018590527f00000000000000000000000000000000000000000000000000000000000000006001600160a01b031690638e539e8c90602401602060405180830381865afa158015611dc9573d6000803e3d6000fd5b505050506040513d601f19601f82011682018060405250810190611ded91906131c2565b611df791906131db565b61091f91906131fa565b6000306001600160a01b037f000000000000000000000000000000000000000000000000000000000000000016148015611e5a57507f000000000000000000000000000000000000000000000000000000000000000046145b15611e8457507f000000000000000000000000000000000000000000000000000000000000000090565b50604080517f00000000000000000000000000000000000000000000000000000000000000006020808301919091527f0000000000000000000000000000000000000000000000000000000000000000828401527f000000000000000000000000000000000000000000000000000000000000000060608301524660808301523060a0808401919091528351808403909101815260c0909201909252805191012090565b6000807f7fffffffffffffffffffffffffffffff5d576e7357a4501ddfe92f46681b20a0831115611f5f575060009050600361200c565b8460ff16601b14158015611f7757508460ff16601c14155b15611f88575060009050600461200c565b6040805160008082526020820180845289905260ff881692820192909252606081018690526080810185905260019060a0016020604051602081039080840390855afa158015611fdc573d6000803e3d6000fd5b5050604051601f1901519150506001600160a01b0381166120055760006001925092505061200c565b9150600090505b94509492505050565b600081600481111561202957612029612a70565b036120315750565b600181600481111561204557612045612a70565b036120925760405162461bcd60e51b815260206004820152601860248201527f45434453413a20696e76616c6964207369676e617475726500000000000000006044820152606401610a78565b60028160048111156120a6576120a6612a70565b036120f35760405162461bcd60e51b815260206004820152601f60248201527f45434453413a20696e76616c6964207369676e6174757265206c656e677468006044820152606401610a78565b600381600481111561210757612107612a70565b0361215f5760405162461bcd60e51b815260206004820152602260248201527f45434453413a20696e76616c6964207369676e6174757265202773272076616c604482015261756560f01b6064820152608401610a78565b600481600481111561217357612173612a70565b03610aa15760405162461bcd60e51b815260206004820152602260248201527f45434453413a20696e76616c6964207369676e6174757265202776272076616c604482015261756560f01b6064820152608401610a78565b60008581526007602090815260408083206001600160a01b0388168452600381019092529091205460ff16156122695760405162461bcd60e51b815260206004820152602760248201527f476f7665726e6f72566f74696e6753696d706c653a20766f746520616c72656160448201527f64792063617374000000000000000000000000000000000000000000000000006064820152608401610a78565b6001600160a01b03851660009081526003820160205260409020805460ff1916600117905560ff84166122b557828160000160008282546122aa91906131aa565b909155506119489050565b60001960ff8516016122d557828160010160008282546122aa91906131aa565b60011960ff8516016122f557828160020160008282546122aa91906131aa565b60405162461bcd60e51b815260206004820152603560248201527f476f7665726e6f72566f74696e6753696d706c653a20696e76616c696420766160448201527f6c756520666f7220656e756d20566f74655479706500000000000000000000006064820152608401610a78565b815470010000000000000000000000000000000090819004600f0b6000818152600180860160205260409091209390935583546fffffffffffffffffffffffffffffffff908116939091011602179055565b606083156123c45750816112e9565b8251156123d45782518084602001fd5b8160405162461bcd60e51b8152600401610a78919061278f565b6060824710156124665760405162461bcd60e51b815260206004820152602660248201527f416464726573733a20696e73756666696369656e742062616c616e636520666f60448201527f722063616c6c00000000000000000000000000000000000000000000000000006064820152608401610a78565b6001600160a01b0385163b6124bd5760405162461bcd60e51b815260206004820152601d60248201527f416464726573733a2063616c6c20746f206e6f6e2d636f6e74726163740000006044820152606401610a78565b600080866001600160a01b031685876040516124d9919061318e565b60006040518083038185875af1925050503d8060008114612516576040519150601f19603f3d011682016040523d82523d6000602084013e61251b565b606091505b5091509150610d288282866123b5565b60006020828403121561253d57600080fd5b81356001600160e01b0319811681146112e957600080fd5b803560ff8116811461256657600080fd5b919050565b60008083601f84011261257d57600080fd5b50813567ffffffffffffffff81111561259557600080fd5b6020830191508360208285010111156125ad57600080fd5b9250929050565b634e487b7160e01b600052604160045260246000fd5b604051601f8201601f1916810167ffffffffffffffff811182821017156125f3576125f36125b4565b604052919050565b600067ffffffffffffffff831115612615576126156125b4565b612628601f8401601f19166020016125ca565b905082815283838301111561263c57600080fd5b828260208301376000602084830101529392505050565b600082601f83011261266457600080fd5b6112e9838335602085016125fb565b60008060008060008060008060e0898b03121561268f57600080fd5b8835975061269f60208a01612555565b9650604089013567ffffffffffffffff808211156126bc57600080fd5b6126c88c838d0161256b565b909850965060608b01359150808211156126e157600080fd5b506126ee8b828c01612653565b9450506126fd60808a01612555565b925060a0890135915060c089013590509295985092959890939650565b60006020828403121561272c57600080fd5b5035919050565b60005b8381101561274e578181015183820152602001612736565b8381111561275d576000848401525b50505050565b6000815180845261277b816020860160208601612733565b601f01601f19169290920160200192915050565b6020815260006112e96020830184612763565b80356001600160a01b038116811461256657600080fd5b600080600080608085870312156127cf57600080fd5b6127d8856127a2565b93506127e6602086016127a2565b925060408501359150606085013567ffffffffffffffff81111561280957600080fd5b61281587828801612653565b91505092959194509250565b600067ffffffffffffffff82111561283b5761283b6125b4565b5060051b60200190565b600082601f83011261285657600080fd5b8135602061286b61286683612821565b6125ca565b82815260059290921b8401810191818101908684111561288a57600080fd5b8286015b848110156128ac5761289f816127a2565b835291830191830161288e565b509695505050505050565b600082601f8301126128c857600080fd5b813560206128d861286683612821565b82815260059290921b840181019181810190868411156128f757600080fd5b8286015b848110156128ac57803583529183019183016128fb565b600082601f83011261292357600080fd5b8135602061293361286683612821565b82815260059290921b8401810191818101908684111561295257600080fd5b8286015b848110156128ac57803567ffffffffffffffff8111156129765760008081fd5b6129848986838b0101612653565b845250918301918301612956565b600080600080608085870312156129a857600080fd5b843567ffffffffffffffff808211156129c057600080fd5b6129cc88838901612845565b955060208701359150808211156129e257600080fd5b6129ee888389016128b7565b94506040870135915080821115612a0457600080fd5b50612a1187828801612912565b949793965093946060013593505050565b600080600080600060a08688031215612a3a57600080fd5b85359450612a4a60208701612555565b9350612a5860408701612555565b94979396509394606081013594506080013592915050565b634e487b7160e01b600052602160045260246000fd5b6020810160088310612aa857634e487b7160e01b600052602160045260246000fd5b91905290565b60008060408385031215612ac157600080fd5b82359150612ad1602084016127a2565b90509250929050565b60008060408385031215612aed57600080fd5b82359150612ad160208401612555565b600080600080600060808688031215612b1557600080fd5b85359450612b2560208701612555565b9350604086013567ffffffffffffffff80821115612b4257600080fd5b612b4e89838a0161256b565b90955093506060880135915080821115612b6757600080fd5b50612b7488828901612653565b9150509295509295909350565b60008060008060608587031215612b9757600080fd5b84359350612ba760208601612555565b9250604085013567ffffffffffffffff811115612bc357600080fd5b612bcf8782880161256b565b95989497509550505050565b60008060008060808587031215612bf157600080fd5b843567ffffffffffffffff80821115612c0957600080fd5b612c1588838901612845565b95506020870135915080821115612c2b57600080fd5b612c37888389016128b7565b94506040870135915080821115612c4d57600080fd5b612c5988838901612912565b93506060870135915080821115612c6f57600080fd5b508501601f81018713612c8157600080fd5b612815878235602084016125fb565b600080600060608486031215612ca557600080fd5b612cae846127a2565b925060208401359150604084013567ffffffffffffffff811115612cd157600080fd5b612cdd86828701612653565b9150509250925092565b600080600080600060a08688031215612cff57600080fd5b612d08866127a2565b9450612d16602087016127a2565b9350604086013567ffffffffffffffff80821115612d3357600080fd5b612d3f89838a016128b7565b94506060880135915080821115612d5557600080fd5b612d6189838a016128b7565b93506080880135915080821115612b6757600080fd5b60008060008060608587031215612d8d57600080fd5b612d96856127a2565b935060208501359250604085013567ffffffffffffffff811115612bc357600080fd5b60008060408385031215612dcc57600080fd5b612dd5836127a2565b946020939093013593505050565b600080600080600060a08688031215612dfb57600080fd5b612e04866127a2565b9450612e12602087016127a2565b93506040860135925060608601359150608086013567ffffffffffffffff811115612e3c57600080fd5b612b7488828901612653565b8183823760009101908152919050565b600181811c90821680612e6c57607f821691505b602082108103612e8c57634e487b7160e01b600052602260045260246000fd5b50919050565b634e487b7160e01b600052601160045260246000fd5b600082821015612eba57612eba612e92565b500390565b600067ffffffffffffffff808316818516808303821115612ee257612ee2612e92565b01949350505050565b600081518084526020808501945080840160005b83811015612f245781516001600160a01b031687529582019590820190600101612eff565b509495945050505050565b600081518084526020808501945080840160005b83811015612f2457815187529582019590820190600101612f43565b600081518084526020808501808196508360051b8101915082860160005b85811015612fa7578284038952612f95848351612763565b98850198935090840190600101612f7d565b5091979650505050505050565b60006101208b835260206001600160a01b038c1681850152816040850152612fde8285018c612eeb565b91508382036060850152612ff2828b612f2f565b915083820360808501528189518084528284019150828160051b850101838c0160005b8381101561304357601f19878403018552613031838351612763565b94860194925090850190600101613015565b505086810360a0880152613057818c612f5f565b94505050505061307360c084018767ffffffffffffffff169052565b67ffffffffffffffff851660e08401528281036101008401526130968185612763565b9c9b505050505050505050505050565b6080815260006130b96080830187612eeb565b82810360208401526130cb8187612f2f565b905082810360408401526130df8186612f5f565b91505082606083015295945050505050565b84815260ff84166020820152826040820152608060608201526000610f6c6080830184612763565b85815260ff8516602082015283604082015260a06060820152600061314160a0830185612763565b82810360808401526131538185612763565b98975050505050505050565b634e487b7160e01b600052603260045260246000fd5b60006001820161318757613187612e92565b5060010190565b600082516131a0818460208701612733565b9190910192915050565b600082198211156131bd576131bd612e92565b500190565b6000602082840312156131d457600080fd5b5051919050565b60008160001904831182151516156131f5576131f5612e92565b500290565b60008261321757634e487b7160e01b600052601260045260246000fd5b50049056fe476f7665726e6f723a2063616c6c20726576657274656420776974686f7574206d657373616765416464726573733a206c6f772d6c6576656c2063616c6c20776974682076616c7565206661696c6564a26469706673582212207468d8c16591aabb31fae30f44ed1b0b692093c2ce4021946dbb0130da6b9d0464736f6c634300080f0033",
  "immutableReferences": {
    "2007": [
      {
        "length": 32,
        "start": 2074
      },
      {
        "length": 32,
        "start": 7097
      },
      {
        "length": 32,
        "start": 7546
      }
    ],
    "3453": [
      {
        "length": 32,
        "start": 7778
      }
    ],
    "3455": [
      {
        "length": 32,
        "start": 7736
      }
    ],
    "3457": [
      {
        "length": 32,
        "start": 7694
      }
    ],
    "3459": [
      {
        "length": 32,
        "start": 7861
      }
    ],
    "3461": [
      {
        "length": 32,
        "start": 7898
      }
    ],
    "3463": [
      {
        "length": 32,
        "start": 7819
      }
    ]
  },
  "source": "// SPDX-License-Identifier: MIT\npragma solidity ^0.8.4;\n\nimport \"@openzeppelin/contracts/governance/Governor.sol\";\nimport \"@openzeppelin/contracts/governance/extensions/GovernorSettings.sol\";\nimport \"@openzeppelin/contracts/governance/extensions/GovernorCountingSimple.sol\";\nimport \"@openzeppelin/contracts/governance/extensions/GovernorVotes.sol\";\nimport \"@openzeppelin/contracts/governance/extensions/GovernorVotesQuorumFraction.sol\";\n\ncontract DaoTemple is Governor, GovernorSettings, GovernorCountingSimple, GovernorVotes, GovernorVotesQuorumFraction {\n    /**\n      _token :  contract address\n      daoName : dao  \n      _delay :        (1 )\n      _Period : (1 ) 1 * 60 = 60\n      _Threshold : proposel   msg.sender    \n      _Quorum :       (totalSupply * _Quorum %)\n\n          (Klaytn : 1 ) \n     */\n    constructor(IVotes _token, string memory daoName,uint256 _delay, uint256 _Period, uint256 _Threshold,uint256 _Quorum)\n        Governor(daoName)\n        GovernorSettings(_delay, _Period , _Threshold)\n        GovernorVotes(_token)\n        GovernorVotesQuorumFraction(_Quorum)\n    {}\n\n    // The following functions are overrides required by Solidity.\n\n    function votingDelay()\n        public\n        view\n        override(IGovernor, GovernorSettings)\n        returns (uint256)\n    {\n        return super.votingDelay();\n    }\n\n    function votingPeriod()\n        public\n        view\n        override(IGovernor, GovernorSettings)\n        returns (uint256)\n    {\n        return super.votingPeriod();\n    }\n\n    function quorum(uint256 blockNumber)\n        public\n        view\n        override(IGovernor, GovernorVotesQuorumFraction)\n        returns (uint256)\n    {\n        return super.quorum(blockNumber);\n    }\n\n    function proposalThreshold()\n        public\n        view\n        override(Governor, GovernorSettings)\n        returns (uint256)\n    {\n        return super.proposalThreshold();\n    }\n\n}\n",
  "sourcePath": "/Users/choiwonhyeok/Documents/hallah/back/contracts/DAOTemple.sol",
  "compiler": {
    "name": "solc",
    "version": "0.8.15+commit.e14f2714.Emscripten.clang"
  },
  "schemaVersion": "3.4.8",
  "updatedAt": "2022-07-16T15:20:11.092Z",
  "devdoc": {
    "errors": {
      "Empty()": [
        {
          "details": "An operation (e.g. {front}) couldn't be completed due to the queue being empty."
        }
      ]
    },
    "kind": "dev",
    "methods": {
      "COUNTING_MODE()": {
        "details": "See {IGovernor-COUNTING_MODE}."
      },
      "castVote(uint256,uint8)": {
        "details": "See {IGovernor-castVote}."
      },
      "castVoteBySig(uint256,uint8,uint8,bytes32,bytes32)": {
        "details": "See {IGovernor-castVoteBySig}."
      },
      "castVoteWithReason(uint256,uint8,string)": {
        "details": "See {IGovernor-castVoteWithReason}."
      },
      "castVoteWithReasonAndParams(uint256,uint8,string,bytes)": {
        "details": "See {IGovernor-castVoteWithReasonAndParams}."
      },
      "castVoteWithReasonAndParamsBySig(uint256,uint8,string,bytes,uint8,bytes32,bytes32)": {
        "details": "See {IGovernor-castVoteWithReasonAndParamsBySig}."
      },
      "execute(address[],uint256[],bytes[],bytes32)": {
        "details": "See {IGovernor-execute}."
      },
      "getVotes(address,uint256)": {
        "details": "See {IGovernor-getVotes}."
      },
      "getVotesWithParams(address,uint256,bytes)": {
        "details": "See {IGovernor-getVotesWithParams}."
      },
      "hasVoted(uint256,address)": {
        "details": "See {IGovernor-hasVoted}."
      },
      "hashProposal(address[],uint256[],bytes[],bytes32)": {
        "details": "See {IGovernor-hashProposal}. The proposal id is produced by hashing the RLC encoded `targets` array, the `values` array, the `calldatas` array and the descriptionHash (bytes32 which itself is the keccak256 hash of the description string). This proposal id can be produced from the proposal data which is part of the {ProposalCreated} event. It can even be computed in advance, before the proposal is submitted. Note that the chainId and the governor address are not part of the proposal id computation. Consequently, the same proposal (with same operation and same description) will have the same id if submitted on multiple governors across multiple networks. This also means that in order to execute the same operation twice (on the same governor) the proposer will have to change the description in order to avoid proposal id conflicts."
      },
      "name()": {
        "details": "See {IGovernor-name}."
      },
      "onERC1155BatchReceived(address,address,uint256[],uint256[],bytes)": {
        "details": "See {IERC1155Receiver-onERC1155BatchReceived}."
      },
      "onERC1155Received(address,address,uint256,uint256,bytes)": {
        "details": "See {IERC1155Receiver-onERC1155Received}."
      },
      "onERC721Received(address,address,uint256,bytes)": {
        "details": "See {IERC721Receiver-onERC721Received}."
      },
      "proposalDeadline(uint256)": {
        "details": "See {IGovernor-proposalDeadline}."
      },
      "proposalSnapshot(uint256)": {
        "details": "See {IGovernor-proposalSnapshot}."
      },
      "proposalVotes(uint256)": {
        "details": "Accessor to the internal vote counts."
      },
      "propose(address[],uint256[],bytes[],string)": {
        "details": "See {IGovernor-propose}."
      },
      "quorumDenominator()": {
        "details": "Returns the quorum denominator. Defaults to 100, but may be overridden."
      },
      "quorumNumerator()": {
        "details": "Returns the current quorum numerator. See {quorumDenominator}."
      },
      "relay(address,uint256,bytes)": {
        "details": "Relays a transaction or function call to an arbitrary target. In cases where the governance executor is some contract other than the governor itself, like when using a timelock, this function can be invoked in a governance proposal to recover tokens or Ether that was sent to the governor contract by mistake. Note that if the executor is simply the governor itself, use of `relay` is redundant."
      },
      "setProposalThreshold(uint256)": {
        "details": "Update the proposal threshold. This operation can only be performed through a governance proposal. Emits a {ProposalThresholdSet} event."
      },
      "setVotingDelay(uint256)": {
        "details": "Update the voting delay. This operation can only be performed through a governance proposal. Emits a {VotingDelaySet} event."
      },
      "setVotingPeriod(uint256)": {
        "details": "Update the voting period. This operation can only be performed through a governance proposal. Emits a {VotingPeriodSet} event."
      },
      "state(uint256)": {
        "details": "See {IGovernor-state}."
      },
      "supportsInterface(bytes4)": {
        "details": "See {IERC165-supportsInterface}."
      },
      "updateQuorumNumerator(uint256)": {
        "details": "Changes the quorum numerator. Emits a {QuorumNumeratorUpdated} event. Requirements: - Must be called through a governance proposal. - New numerator must be smaller or equal to the denominator."
      },
      "version()": {
        "details": "See {IGovernor-version}."
      }
    },
    "version": 1
  },
  "userdoc": {
    "kind": "user",
    "methods": {
      "constructor": {
        "notice": "_token :  contract address daoName : dao   _delay :        (1 ) _Period : (1 ) 1 * 60 = 60 _Threshold : proposel   msg.sender     _Quorum :       (totalSupply * _Quorum %)     (Klaytn : 1 ) "
      }
    },
    "version": 1
  }
}