{
  "contractName": "HallaHDAO_test",
  "abi": [
    {
      "inputs": [
        {
          "internalType": "contract IVotes",
          "name": "_token",
          "type": "address"
        },
        {
          "internalType": "contract TimelockController",
          "name": "_timelock",
          "type": "address"
        }
      ],
      "stateMutability": "nonpayable",
      "type": "constructor"
    },
    {
      "inputs": [],
      "name": "Empty",
      "type": "error"
    },
    {
      "anonymous": false,
      "inputs": [
        {
          "indexed": false,
          "internalType": "uint256",
          "name": "proposalId",
          "type": "uint256"
        }
      ],
      "name": "ProposalCanceled",
      "type": "event"
    },
    {
      "anonymous": false,
      "inputs": [
        {
          "indexed": false,
          "internalType": "uint256",
          "name": "proposalId",
          "type": "uint256"
        },
        {
          "indexed": false,
          "internalType": "address",
          "name": "proposer",
          "type": "address"
        },
        {
          "indexed": false,
          "internalType": "address[]",
          "name": "targets",
          "type": "address[]"
        },
        {
          "indexed": false,
          "internalType": "uint256[]",
          "name": "values",
          "type": "uint256[]"
        },
        {
          "indexed": false,
          "internalType": "string[]",
          "name": "signatures",
          "type": "string[]"
        },
        {
          "indexed": false,
          "internalType": "bytes[]",
          "name": "calldatas",
          "type": "bytes[]"
        },
        {
          "indexed": false,
          "internalType": "uint256",
          "name": "startBlock",
          "type": "uint256"
        },
        {
          "indexed": false,
          "internalType": "uint256",
          "name": "endBlock",
          "type": "uint256"
        },
        {
          "indexed": false,
          "internalType": "string",
          "name": "description",
          "type": "string"
        }
      ],
      "name": "ProposalCreated",
      "type": "event"
    },
    {
      "anonymous": false,
      "inputs": [
        {
          "indexed": false,
          "internalType": "uint256",
          "name": "proposalId",
          "type": "uint256"
        }
      ],
      "name": "ProposalExecuted",
      "type": "event"
    },
    {
      "anonymous": false,
      "inputs": [
        {
          "indexed": false,
          "internalType": "uint256",
          "name": "proposalId",
          "type": "uint256"
        },
        {
          "indexed": false,
          "internalType": "uint256",
          "name": "eta",
          "type": "uint256"
        }
      ],
      "name": "ProposalQueued",
      "type": "event"
    },
    {
      "anonymous": false,
      "inputs": [
        {
          "indexed": false,
          "internalType": "uint256",
          "name": "oldProposalThreshold",
          "type": "uint256"
        },
        {
          "indexed": false,
          "internalType": "uint256",
          "name": "newProposalThreshold",
          "type": "uint256"
        }
      ],
      "name": "ProposalThresholdSet",
      "type": "event"
    },
    {
      "anonymous": false,
      "inputs": [
        {
          "indexed": false,
          "internalType": "uint256",
          "name": "oldQuorumNumerator",
          "type": "uint256"
        },
        {
          "indexed": false,
          "internalType": "uint256",
          "name": "newQuorumNumerator",
          "type": "uint256"
        }
      ],
      "name": "QuorumNumeratorUpdated",
      "type": "event"
    },
    {
      "anonymous": false,
      "inputs": [
        {
          "indexed": false,
          "internalType": "address",
          "name": "oldTimelock",
          "type": "address"
        },
        {
          "indexed": false,
          "internalType": "address",
          "name": "newTimelock",
          "type": "address"
        }
      ],
      "name": "TimelockChange",
      "type": "event"
    },
    {
      "anonymous": false,
      "inputs": [
        {
          "indexed": true,
          "internalType": "address",
          "name": "voter",
          "type": "address"
        },
        {
          "indexed": false,
          "internalType": "uint256",
          "name": "proposalId",
          "type": "uint256"
        },
        {
          "indexed": false,
          "internalType": "uint8",
          "name": "support",
          "type": "uint8"
        },
        {
          "indexed": false,
          "internalType": "uint256",
          "name": "weight",
          "type": "uint256"
        },
        {
          "indexed": false,
          "internalType": "string",
          "name": "reason",
          "type": "string"
        }
      ],
      "name": "VoteCast",
      "type": "event"
    },
    {
      "anonymous": false,
      "inputs": [
        {
          "indexed": true,
          "internalType": "address",
          "name": "voter",
          "type": "address"
        },
        {
          "indexed": false,
          "internalType": "uint256",
          "name": "proposalId",
          "type": "uint256"
        },
        {
          "indexed": false,
          "internalType": "uint8",
          "name": "support",
          "type": "uint8"
        },
        {
          "indexed": false,
          "internalType": "uint256",
          "name": "weight",
          "type": "uint256"
        },
        {
          "indexed": false,
          "internalType": "string",
          "name": "reason",
          "type": "string"
        },
        {
          "indexed": false,
          "internalType": "bytes",
          "name": "params",
          "type": "bytes"
        }
      ],
      "name": "VoteCastWithParams",
      "type": "event"
    },
    {
      "anonymous": false,
      "inputs": [
        {
          "indexed": false,
          "internalType": "uint256",
          "name": "oldVotingDelay",
          "type": "uint256"
        },
        {
          "indexed": false,
          "internalType": "uint256",
          "name": "newVotingDelay",
          "type": "uint256"
        }
      ],
      "name": "VotingDelaySet",
      "type": "event"
    },
    {
      "anonymous": false,
      "inputs": [
        {
          "indexed": false,
          "internalType": "uint256",
          "name": "oldVotingPeriod",
          "type": "uint256"
        },
        {
          "indexed": false,
          "internalType": "uint256",
          "name": "newVotingPeriod",
          "type": "uint256"
        }
      ],
      "name": "VotingPeriodSet",
      "type": "event"
    },
    {
      "inputs": [],
      "name": "BALLOT_TYPEHASH",
      "outputs": [
        {
          "internalType": "bytes32",
          "name": "",
          "type": "bytes32"
        }
      ],
      "stateMutability": "view",
      "type": "function"
    },
    {
      "inputs": [],
      "name": "COUNTING_MODE",
      "outputs": [
        {
          "internalType": "string",
          "name": "",
          "type": "string"
        }
      ],
      "stateMutability": "pure",
      "type": "function"
    },
    {
      "inputs": [],
      "name": "EXTENDED_BALLOT_TYPEHASH",
      "outputs": [
        {
          "internalType": "bytes32",
          "name": "",
          "type": "bytes32"
        }
      ],
      "stateMutability": "view",
      "type": "function"
    },
    {
      "inputs": [
        {
          "internalType": "uint256",
          "name": "proposalId",
          "type": "uint256"
        },
        {
          "internalType": "uint8",
          "name": "support",
          "type": "uint8"
        }
      ],
      "name": "castVote",
      "outputs": [
        {
          "internalType": "uint256",
          "name": "",
          "type": "uint256"
        }
      ],
      "stateMutability": "nonpayable",
      "type": "function"
    },
    {
      "inputs": [
        {
          "internalType": "uint256",
          "name": "proposalId",
          "type": "uint256"
        },
        {
          "internalType": "uint8",
          "name": "support",
          "type": "uint8"
        },
        {
          "internalType": "uint8",
          "name": "v",
          "type": "uint8"
        },
        {
          "internalType": "bytes32",
          "name": "r",
          "type": "bytes32"
        },
        {
          "internalType": "bytes32",
          "name": "s",
          "type": "bytes32"
        }
      ],
      "name": "castVoteBySig",
      "outputs": [
        {
          "internalType": "uint256",
          "name": "",
          "type": "uint256"
        }
      ],
      "stateMutability": "nonpayable",
      "type": "function"
    },
    {
      "inputs": [
        {
          "internalType": "uint256",
          "name": "proposalId",
          "type": "uint256"
        },
        {
          "internalType": "uint8",
          "name": "support",
          "type": "uint8"
        },
        {
          "internalType": "string",
          "name": "reason",
          "type": "string"
        }
      ],
      "name": "castVoteWithReason",
      "outputs": [
        {
          "internalType": "uint256",
          "name": "",
          "type": "uint256"
        }
      ],
      "stateMutability": "nonpayable",
      "type": "function"
    },
    {
      "inputs": [
        {
          "internalType": "uint256",
          "name": "proposalId",
          "type": "uint256"
        },
        {
          "internalType": "uint8",
          "name": "support",
          "type": "uint8"
        },
        {
          "internalType": "string",
          "name": "reason",
          "type": "string"
        },
        {
          "internalType": "bytes",
          "name": "params",
          "type": "bytes"
        }
      ],
      "name": "castVoteWithReasonAndParams",
      "outputs": [
        {
          "internalType": "uint256",
          "name": "",
          "type": "uint256"
        }
      ],
      "stateMutability": "nonpayable",
      "type": "function"
    },
    {
      "inputs": [
        {
          "internalType": "uint256",
          "name": "proposalId",
          "type": "uint256"
        },
        {
          "internalType": "uint8",
          "name": "support",
          "type": "uint8"
        },
        {
          "internalType": "string",
          "name": "reason",
          "type": "string"
        },
        {
          "internalType": "bytes",
          "name": "params",
          "type": "bytes"
        },
        {
          "internalType": "uint8",
          "name": "v",
          "type": "uint8"
        },
        {
          "internalType": "bytes32",
          "name": "r",
          "type": "bytes32"
        },
        {
          "internalType": "bytes32",
          "name": "s",
          "type": "bytes32"
        }
      ],
      "name": "castVoteWithReasonAndParamsBySig",
      "outputs": [
        {
          "internalType": "uint256",
          "name": "",
          "type": "uint256"
        }
      ],
      "stateMutability": "nonpayable",
      "type": "function"
    },
    {
      "inputs": [
        {
          "internalType": "address[]",
          "name": "targets",
          "type": "address[]"
        },
        {
          "internalType": "uint256[]",
          "name": "values",
          "type": "uint256[]"
        },
        {
          "internalType": "bytes[]",
          "name": "calldatas",
          "type": "bytes[]"
        },
        {
          "internalType": "bytes32",
          "name": "descriptionHash",
          "type": "bytes32"
        }
      ],
      "name": "execute",
      "outputs": [
        {
          "internalType": "uint256",
          "name": "",
          "type": "uint256"
        }
      ],
      "stateMutability": "payable",
      "type": "function"
    },
    {
      "inputs": [
        {
          "internalType": "address",
          "name": "account",
          "type": "address"
        },
        {
          "internalType": "uint256",
          "name": "blockNumber",
          "type": "uint256"
        }
      ],
      "name": "getVotes",
      "outputs": [
        {
          "internalType": "uint256",
          "name": "",
          "type": "uint256"
        }
      ],
      "stateMutability": "view",
      "type": "function"
    },
    {
      "inputs": [
        {
          "internalType": "address",
          "name": "account",
          "type": "address"
        },
        {
          "internalType": "uint256",
          "name": "blockNumber",
          "type": "uint256"
        },
        {
          "internalType": "bytes",
          "name": "params",
          "type": "bytes"
        }
      ],
      "name": "getVotesWithParams",
      "outputs": [
        {
          "internalType": "uint256",
          "name": "",
          "type": "uint256"
        }
      ],
      "stateMutability": "view",
      "type": "function"
    },
    {
      "inputs": [
        {
          "internalType": "uint256",
          "name": "proposalId",
          "type": "uint256"
        },
        {
          "internalType": "address",
          "name": "account",
          "type": "address"
        }
      ],
      "name": "hasVoted",
      "outputs": [
        {
          "internalType": "bool",
          "name": "",
          "type": "bool"
        }
      ],
      "stateMutability": "view",
      "type": "function"
    },
    {
      "inputs": [
        {
          "internalType": "address[]",
          "name": "targets",
          "type": "address[]"
        },
        {
          "internalType": "uint256[]",
          "name": "values",
          "type": "uint256[]"
        },
        {
          "internalType": "bytes[]",
          "name": "calldatas",
          "type": "bytes[]"
        },
        {
          "internalType": "bytes32",
          "name": "descriptionHash",
          "type": "bytes32"
        }
      ],
      "name": "hashProposal",
      "outputs": [
        {
          "internalType": "uint256",
          "name": "",
          "type": "uint256"
        }
      ],
      "stateMutability": "pure",
      "type": "function"
    },
    {
      "inputs": [],
      "name": "name",
      "outputs": [
        {
          "internalType": "string",
          "name": "",
          "type": "string"
        }
      ],
      "stateMutability": "view",
      "type": "function"
    },
    {
      "inputs": [
        {
          "internalType": "address",
          "name": "",
          "type": "address"
        },
        {
          "internalType": "address",
          "name": "",
          "type": "address"
        },
        {
          "internalType": "uint256[]",
          "name": "",
          "type": "uint256[]"
        },
        {
          "internalType": "uint256[]",
          "name": "",
          "type": "uint256[]"
        },
        {
          "internalType": "bytes",
          "name": "",
          "type": "bytes"
        }
      ],
      "name": "onERC1155BatchReceived",
      "outputs": [
        {
          "internalType": "bytes4",
          "name": "",
          "type": "bytes4"
        }
      ],
      "stateMutability": "nonpayable",
      "type": "function"
    },
    {
      "inputs": [
        {
          "internalType": "address",
          "name": "",
          "type": "address"
        },
        {
          "internalType": "address",
          "name": "",
          "type": "address"
        },
        {
          "internalType": "uint256",
          "name": "",
          "type": "uint256"
        },
        {
          "internalType": "uint256",
          "name": "",
          "type": "uint256"
        },
        {
          "internalType": "bytes",
          "name": "",
          "type": "bytes"
        }
      ],
      "name": "onERC1155Received",
      "outputs": [
        {
          "internalType": "bytes4",
          "name": "",
          "type": "bytes4"
        }
      ],
      "stateMutability": "nonpayable",
      "type": "function"
    },
    {
      "inputs": [
        {
          "internalType": "address",
          "name": "",
          "type": "address"
        },
        {
          "internalType": "address",
          "name": "",
          "type": "address"
        },
        {
          "internalType": "uint256",
          "name": "",
          "type": "uint256"
        },
        {
          "internalType": "bytes",
          "name": "",
          "type": "bytes"
        }
      ],
      "name": "onERC721Received",
      "outputs": [
        {
          "internalType": "bytes4",
          "name": "",
          "type": "bytes4"
        }
      ],
      "stateMutability": "nonpayable",
      "type": "function"
    },
    {
      "inputs": [
        {
          "internalType": "uint256",
          "name": "proposalId",
          "type": "uint256"
        }
      ],
      "name": "proposalDeadline",
      "outputs": [
        {
          "internalType": "uint256",
          "name": "",
          "type": "uint256"
        }
      ],
      "stateMutability": "view",
      "type": "function"
    },
    {
      "inputs": [
        {
          "internalType": "uint256",
          "name": "proposalId",
          "type": "uint256"
        }
      ],
      "name": "proposalEta",
      "outputs": [
        {
          "internalType": "uint256",
          "name": "",
          "type": "uint256"
        }
      ],
      "stateMutability": "view",
      "type": "function"
    },
    {
      "inputs": [
        {
          "internalType": "uint256",
          "name": "proposalId",
          "type": "uint256"
        }
      ],
      "name": "proposalSnapshot",
      "outputs": [
        {
          "internalType": "uint256",
          "name": "",
          "type": "uint256"
        }
      ],
      "stateMutability": "view",
      "type": "function"
    },
    {
      "inputs": [
        {
          "internalType": "uint256",
          "name": "proposalId",
          "type": "uint256"
        }
      ],
      "name": "proposalVotes",
      "outputs": [
        {
          "internalType": "uint256",
          "name": "againstVotes",
          "type": "uint256"
        },
        {
          "internalType": "uint256",
          "name": "forVotes",
          "type": "uint256"
        },
        {
          "internalType": "uint256",
          "name": "abstainVotes",
          "type": "uint256"
        }
      ],
      "stateMutability": "view",
      "type": "function"
    },
    {
      "inputs": [
        {
          "internalType": "address[]",
          "name": "targets",
          "type": "address[]"
        },
        {
          "internalType": "uint256[]",
          "name": "values",
          "type": "uint256[]"
        },
        {
          "internalType": "bytes[]",
          "name": "calldatas",
          "type": "bytes[]"
        },
        {
          "internalType": "bytes32",
          "name": "descriptionHash",
          "type": "bytes32"
        }
      ],
      "name": "queue",
      "outputs": [
        {
          "internalType": "uint256",
          "name": "",
          "type": "uint256"
        }
      ],
      "stateMutability": "nonpayable",
      "type": "function"
    },
    {
      "inputs": [],
      "name": "quorumDenominator",
      "outputs": [
        {
          "internalType": "uint256",
          "name": "",
          "type": "uint256"
        }
      ],
      "stateMutability": "view",
      "type": "function"
    },
    {
      "inputs": [],
      "name": "quorumNumerator",
      "outputs": [
        {
          "internalType": "uint256",
          "name": "",
          "type": "uint256"
        }
      ],
      "stateMutability": "view",
      "type": "function"
    },
    {
      "inputs": [
        {
          "internalType": "address",
          "name": "target",
          "type": "address"
        },
        {
          "internalType": "uint256",
          "name": "value",
          "type": "uint256"
        },
        {
          "internalType": "bytes",
          "name": "data",
          "type": "bytes"
        }
      ],
      "name": "relay",
      "outputs": [],
      "stateMutability": "nonpayable",
      "type": "function"
    },
    {
      "inputs": [
        {
          "internalType": "uint256",
          "name": "newProposalThreshold",
          "type": "uint256"
        }
      ],
      "name": "setProposalThreshold",
      "outputs": [],
      "stateMutability": "nonpayable",
      "type": "function"
    },
    {
      "inputs": [
        {
          "internalType": "uint256",
          "name": "newVotingDelay",
          "type": "uint256"
        }
      ],
      "name": "setVotingDelay",
      "outputs": [],
      "stateMutability": "nonpayable",
      "type": "function"
    },
    {
      "inputs": [
        {
          "internalType": "uint256",
          "name": "newVotingPeriod",
          "type": "uint256"
        }
      ],
      "name": "setVotingPeriod",
      "outputs": [],
      "stateMutability": "nonpayable",
      "type": "function"
    },
    {
      "inputs": [],
      "name": "timelock",
      "outputs": [
        {
          "internalType": "address",
          "name": "",
          "type": "address"
        }
      ],
      "stateMutability": "view",
      "type": "function"
    },
    {
      "inputs": [],
      "name": "token",
      "outputs": [
        {
          "internalType": "contract IVotes",
          "name": "",
          "type": "address"
        }
      ],
      "stateMutability": "view",
      "type": "function"
    },
    {
      "inputs": [
        {
          "internalType": "uint256",
          "name": "newQuorumNumerator",
          "type": "uint256"
        }
      ],
      "name": "updateQuorumNumerator",
      "outputs": [],
      "stateMutability": "nonpayable",
      "type": "function"
    },
    {
      "inputs": [
        {
          "internalType": "contract TimelockController",
          "name": "newTimelock",
          "type": "address"
        }
      ],
      "name": "updateTimelock",
      "outputs": [],
      "stateMutability": "nonpayable",
      "type": "function"
    },
    {
      "inputs": [],
      "name": "version",
      "outputs": [
        {
          "internalType": "string",
          "name": "",
          "type": "string"
        }
      ],
      "stateMutability": "view",
      "type": "function"
    },
    {
      "stateMutability": "payable",
      "type": "receive"
    },
    {
      "inputs": [],
      "name": "votingDelay",
      "outputs": [
        {
          "internalType": "uint256",
          "name": "",
          "type": "uint256"
        }
      ],
      "stateMutability": "view",
      "type": "function"
    },
    {
      "inputs": [],
      "name": "votingPeriod",
      "outputs": [
        {
          "internalType": "uint256",
          "name": "",
          "type": "uint256"
        }
      ],
      "stateMutability": "view",
      "type": "function"
    },
    {
      "inputs": [
        {
          "internalType": "uint256",
          "name": "blockNumber",
          "type": "uint256"
        }
      ],
      "name": "quorum",
      "outputs": [
        {
          "internalType": "uint256",
          "name": "",
          "type": "uint256"
        }
      ],
      "stateMutability": "view",
      "type": "function"
    },
    {
      "inputs": [
        {
          "internalType": "uint256",
          "name": "proposalId",
          "type": "uint256"
        }
      ],
      "name": "state",
      "outputs": [
        {
          "internalType": "enum IGovernor.ProposalState",
          "name": "",
          "type": "uint8"
        }
      ],
      "stateMutability": "view",
      "type": "function"
    },
    {
      "inputs": [
        {
          "internalType": "address[]",
          "name": "targets",
          "type": "address[]"
        },
        {
          "internalType": "uint256[]",
          "name": "values",
          "type": "uint256[]"
        },
        {
          "internalType": "bytes[]",
          "name": "calldatas",
          "type": "bytes[]"
        },
        {
          "internalType": "string",
          "name": "description",
          "type": "string"
        }
      ],
      "name": "propose",
      "outputs": [
        {
          "internalType": "uint256",
          "name": "",
          "type": "uint256"
        }
      ],
      "stateMutability": "nonpayable",
      "type": "function"
    },
    {
      "inputs": [],
      "name": "proposalThreshold",
      "outputs": [
        {
          "internalType": "uint256",
          "name": "",
          "type": "uint256"
        }
      ],
      "stateMutability": "view",
      "type": "function"
    },
    {
      "inputs": [
        {
          "internalType": "bytes4",
          "name": "interfaceId",
          "type": "bytes4"
        }
      ],
      "name": "supportsInterface",
      "outputs": [
        {
          "internalType": "bool",
          "name": "",
          "type": "bool"
        }
      ],
      "stateMutability": "view",
      "type": "function"
    }
  ],
  "bytecode": "0x6101606040523480156200001257600080fd5b506040516200420d3803806200420d8339810160408190526200003591620003f4565b80600583600161011160006040518060400160405280600981526020016848616c6c614844414f60b81b81525080620000736200016460201b60201c565b815160209283012081519183019190912060e08290526101008190524660a0818152604080517f8b73c3c69bb8fe3d512ecc4cf759cc79239f7b179b0ffacaa9a75d522b39400f818801819052818301969096526060810194909452608080850193909352308483018190528151808603909301835260c094850190915281519190950120905291909152610120526000620001108282620004d8565b506200011e9050836200017f565b6200012982620001c0565b620001348162000267565b5050506001600160a01b0316610140526200014f81620002a8565b506200015b8162000372565b505050620005a4565b6040805180820190915260018152603160f81b602082015290565b60045460408051918252602082018390527fc565b045403dc03c2eea82b81a0465edad9e2e7fc4d97e11421c209da93d7a93910160405180910390a1600455565b60008111620002265760405162461bcd60e51b815260206004820152602760248201527f476f7665726e6f7253657474696e67733a20766f74696e6720706572696f6420604482015266746f6f206c6f7760c81b60648201526084015b60405180910390fd5b60055460408051918252602082018390527f7e3f7f0708a84de9203036abaa450dccc85ad5ff52f78c170f3edb55cf5e8828910160405180910390a1600555565b60065460408051918252602082018390527fccb45da8d5717e6c4544694297c4ba5cf151d455c9bb0ed4fc7a38411bc05461910160405180910390a1600655565b60648111156200032d5760405162461bcd60e51b815260206004820152604360248201527f476f7665726e6f72566f74657351756f72756d4672616374696f6e3a2071756f60448201527f72756d4e756d657261746f72206f7665722071756f72756d44656e6f6d696e616064820152623a37b960e91b608482015260a4016200021d565b600880549082905560408051828152602081018490527f0553476bf02ef2726e8ce5ced78d63e26e602e4a2257b1f559418e24b4633997910160405180910390a15050565b600954604080516001600160a01b03928316815291831660208301527f08f74ea46ef7894f65eabfb5e6e695de773a000b47c529ab559178069b226401910160405180910390a1600980546001600160a01b0319166001600160a01b0392909216919091179055565b6001600160a01b0381168114620003f157600080fd5b50565b600080604083850312156200040857600080fd5b82516200041581620003db565b60208401519092506200042881620003db565b809150509250929050565b634e487b7160e01b600052604160045260246000fd5b600181811c908216806200045e57607f821691505b6020821081036200047f57634e487b7160e01b600052602260045260246000fd5b50919050565b601f821115620004d357600081815260208120601f850160051c81016020861015620004ae5750805b601f850160051c820191505b81811015620004cf57828155600101620004ba565b5050505b505050565b81516001600160401b03811115620004f457620004f462000433565b6200050c8162000505845462000449565b8462000485565b602080601f8311600181146200054457600084156200052b5750858301515b600019600386901b1c1916600185901b178555620004cf565b600085815260208120601f198616915b82811015620005755788860151825594840194600190910190840162000554565b5085821015620005945787850151600019600388901b60f8161c191681555b5050505050600190811b01905550565b60805160a05160c05160e051610100516101205161014051613c006200060d60003960008181610932015281816120a001526122e2015260006124c201526000612511015260006124ec015260006124450152600061246f015260006124990152613c006000f3fe6080604052600436106102bf5760003560e01c80637d5e81e21161016e578063c59057e4116100cb578063eb9019d41161007f578063f23a6e6111610064578063f23a6e61146108bb578063f8ce560a14610900578063fc0c546a1461092057600080fd5b8063eb9019d41461087b578063ece40cc11461089b57600080fd5b8063dd4e2ba5116100b0578063dd4e2ba5146107e1578063deaaa7cc14610827578063ea0217cf1461085b57600080fd5b8063c59057e41461078f578063d33219b4146107af57600080fd5b8063ab58fb8e11610122578063bc197c8111610107578063bc197c811461070a578063c01f9e371461074f578063c28bc2fa1461076f57600080fd5b8063ab58fb8e146106d5578063b58131b0146106f557600080fd5b80639a802a6d116101535780639a802a6d14610680578063a7713a70146106a0578063a890c910146106b557600080fd5b80637d5e81e21461064c57806397c3d3341461066c57600080fd5b80633932abb11161021c57806354fd4d50116101d05780635f398a14116101b55780635f398a14146105ec57806370b0f6601461060c5780637b3c71d31461062c57600080fd5b806354fd4d501461058657806356781388146105cc57600080fd5b80633e4f49e6116102015780633e4f49e6146104ba57806343859632146104e7578063544ffc9c1461053157600080fd5b80633932abb1146104855780633bccf4fd1461049a57600080fd5b8063150b7a02116102735780632656227d116102585780632656227d1461041e5780632d63f693146104315780632fe3e2611461045157600080fd5b8063150b7a02146103a1578063160cbed7146103fe57600080fd5b806303420181116102a4578063034201811461033f57806306f3f9e61461035f57806306fdde031461037f57600080fd5b806301ffc9a7146102e757806302a251a31461031c57600080fd5b366102e257306102cd610954565b6001600160a01b0316146102e057600080fd5b005b600080fd5b3480156102f357600080fd5b50610307610302366004612dac565b61096d565b60405190151581526020015b60405180910390f35b34801561032857600080fd5b5061033161097e565b604051908152602001610313565b34801561034b57600080fd5b5061033161035a366004612ef4565b610989565b34801561036b57600080fd5b506102e061037a366004612f9b565b610a81565b34801561038b57600080fd5b50610394610b40565b6040516103139190613010565b3480156103ad57600080fd5b506103e56103bc366004613038565b7f150b7a0200000000000000000000000000000000000000000000000000000000949350505050565b6040516001600160e01b03199091168152602001610313565b34801561040a57600080fd5b50610331610419366004613217565b610bd2565b61033161042c366004613217565b610e57565b34801561043d57600080fd5b5061033161044c366004612f9b565b610f7e565b34801561045d57600080fd5b506103317fb3b3f3b703cd84ce352197dcff232b1b5d3cfb2025ce47cf04742d0651f1af8881565b34801561049157600080fd5b50610331610fb7565b3480156104a657600080fd5b506103316104b53660046132a7565b610fc2565b3480156104c657600080fd5b506104da6104d5366004612f9b565b611038565b604051610313919061330b565b3480156104f357600080fd5b50610307610502366004613333565b60008281526007602090815260408083206001600160a01b038516845260030190915290205460ff1692915050565b34801561053d57600080fd5b5061056b61054c366004612f9b565b6000908152600760205260409020805460018201546002909201549092565b60408051938452602084019290925290820152606001610313565b34801561059257600080fd5b5060408051808201909152600181527f31000000000000000000000000000000000000000000000000000000000000006020820152610394565b3480156105d857600080fd5b506103316105e7366004613363565b611043565b3480156105f857600080fd5b5061033161060736600461338f565b61106c565b34801561061857600080fd5b506102e0610627366004612f9b565b6110b6565b34801561063857600080fd5b50610331610647366004613413565b61116d565b34801561065857600080fd5b5061033161066736600461346d565b6111bf565b34801561067857600080fd5b506064610331565b34801561068c57600080fd5b5061033161069b366004613522565b6111d6565b3480156106ac57600080fd5b50600854610331565b3480156106c157600080fd5b506102e06106d036600461357b565b6111ed565b3480156106e157600080fd5b506103316106f0366004612f9b565b6112a4565b34801561070157600080fd5b50610331611357565b34801561071657600080fd5b506103e5610725366004613598565b7fbc197c810000000000000000000000000000000000000000000000000000000095945050505050565b34801561075b57600080fd5b5061033161076a366004612f9b565b611362565b34801561077b57600080fd5b506102e061078a36600461362c565b611392565b34801561079b57600080fd5b506103316107aa366004613217565b611489565b3480156107bb57600080fd5b506009546001600160a01b03165b6040516001600160a01b039091168152602001610313565b3480156107ed57600080fd5b506040805180820190915260208082527f737570706f72743d627261766f2671756f72756d3d666f722c6162737461696e90820152610394565b34801561083357600080fd5b506103317f150214d74d59b7d1e90c73fc22ef3d991dd0a76b046543d4d80ab92d2a50328f81565b34801561086757600080fd5b506102e0610876366004612f9b565b6114c3565b34801561088757600080fd5b50610331610896366004613670565b61157a565b3480156108a757600080fd5b506102e06108b6366004612f9b565b61159b565b3480156108c757600080fd5b506103e56108d636600461369c565b7ff23a6e610000000000000000000000000000000000000000000000000000000095945050505050565b34801561090c57600080fd5b5061033161091b366004612f9b565b611652565b34801561092c57600080fd5b506107c97f000000000000000000000000000000000000000000000000000000000000000081565b60006109686009546001600160a01b031690565b905090565b60006109788261165d565b92915050565b600061096860055490565b600080610a2d610a257fb3b3f3b703cd84ce352197dcff232b1b5d3cfb2025ce47cf04742d0651f1af888c8c8c8c6040516109c5929190613705565b60405180910390208b80519060200120604051602001610a0a959493929190948552602085019390935260ff9190911660408401526060830152608082015260a00190565b6040516020818303038152906040528051906020012061169b565b868686611704565b9050610a738a828b8b8b8080601f0160208091040260200160405190810160405280939291908181526020018383808284376000920191909152508d9250611722915050565b9a9950505050505050505050565b610a89610954565b6001600160a01b0316336001600160a01b031614610aee5760405162461bcd60e51b815260206004820152601860248201527f476f7665726e6f723a206f6e6c79476f7665726e616e6365000000000000000060448201526064015b60405180910390fd5b30610af7610954565b6001600160a01b031614610b345760008036604051610b17929190613705565b604051809103902090505b80610b2d60026118a2565b03610b2257505b610b3d81611952565b50565b606060008054610b4f90613715565b80601f0160208091040260200160405190810160405280929190818152602001828054610b7b90613715565b8015610bc85780601f10610b9d57610100808354040283529160200191610bc8565b820191906000526020600020905b815481529060010190602001808311610bab57829003601f168201915b5050505050905090565b600080610be186868686611489565b90506004610bee82611038565b6007811115610bff57610bff6132f5565b14610c565760405162461bcd60e51b815260206004820152602160248201527f476f7665726e6f723a2070726f706f73616c206e6f74207375636365737366756044820152601b60fa1b6064820152608401610ae5565b600954604080517ff27a0c9200000000000000000000000000000000000000000000000000000000815290516000926001600160a01b03169163f27a0c929160048083019260209291908290030181865afa158015610cb9573d6000803e3d6000fd5b505050506040513d601f19601f82011682018060405250810190610cdd919061374f565b6009546040517fb1c5f4270000000000000000000000000000000000000000000000000000000081529192506001600160a01b03169063b1c5f42790610d30908a908a908a906000908b90600401613831565b602060405180830381865afa158015610d4d573d6000803e3d6000fd5b505050506040513d601f19601f82011682018060405250810190610d71919061374f565b6000838152600a60205260408082209290925560095491517f8f2a0bb00000000000000000000000000000000000000000000000000000000081526001600160a01b0390921691638f2a0bb091610dd5918b918b918b91908b90899060040161387f565b600060405180830381600087803b158015610def57600080fd5b505af1158015610e03573d6000803e3d6000fd5b505050507f9a2e42fd6722813d69113e7d0079d3d940171428df7373df9c7f7617cfda2892828242610e3591906138ed565b6040805192835260208301919091520160405180910390a15095945050505050565b600080610e6686868686611489565b90506000610e7382611038565b90506004816007811115610e8957610e896132f5565b1480610ea657506005816007811115610ea457610ea46132f5565b145b610efc5760405162461bcd60e51b815260206004820152602160248201527f476f7665726e6f723a2070726f706f73616c206e6f74207375636365737366756044820152601b60fa1b6064820152608401610ae5565b600082815260016020818152604092839020600201805460ff191690921790915590518381527f712ae1383f79ac853f8d882153778e0260ef8f03b504e2866e0593e04d2b291f910160405180910390a1610f5a8288888888611a34565b610f678288888888611ad5565b610f748288888888611ae2565b5095945050505050565b600081815260016020908152604080832081519283019091525467ffffffffffffffff16908190525b67ffffffffffffffff1692915050565b600061096860045490565b604080517f150214d74d59b7d1e90c73fc22ef3d991dd0a76b046543d4d80ab92d2a50328f602082015290810186905260ff85166060820152600090819061101090610a2590608001610a0a565b905061102d87828860405180602001604052806000815250611b1b565b979650505050505050565b600061097882611b3e565b60008033905061106484828560405180602001604052806000815250611b1b565b949350505050565b60008033905061102d87828888888080601f0160208091040260200160405190810160405280939291908181526020018383808284376000920191909152508a9250611722915050565b6110be610954565b6001600160a01b0316336001600160a01b03161461111e5760405162461bcd60e51b815260206004820152601860248201527f476f7665726e6f723a206f6e6c79476f7665726e616e636500000000000000006044820152606401610ae5565b30611127610954565b6001600160a01b0316146111645760008036604051611147929190613705565b604051809103902090505b8061115d60026118a2565b0361115257505b610b3d81611cba565b6000803390506111b586828787878080601f016020809104026020016040519081016040528093929190818152602001838380828437600092019190915250611b1b92505050565b9695505050505050565b60006111cd85858585611cfb565b95945050505050565b60006111e384848461205e565b90505b9392505050565b6111f5610954565b6001600160a01b0316336001600160a01b0316146112555760405162461bcd60e51b815260206004820152601860248201527f476f7665726e6f723a206f6e6c79476f7665726e616e636500000000000000006044820152606401610ae5565b3061125e610954565b6001600160a01b03161461129b576000803660405161127e929190613705565b604051809103902090505b8061129460026118a2565b0361128957505b610b3d8161210d565b6009546000828152600a60205260408082205490517fd45c44350000000000000000000000000000000000000000000000000000000081526004810191909152909182916001600160a01b039091169063d45c443590602401602060405180830381865afa15801561131a573d6000803e3d6000fd5b505050506040513d601f19601f8201168201806040525081019061133e919061374f565b90508060011461134e57806111e6565b60009392505050565b600061096860065490565b600081815260016020818152604080842081519283019091529091015467ffffffffffffffff1690819052610fa7565b61139a610954565b6001600160a01b0316336001600160a01b0316146113fa5760405162461bcd60e51b815260206004820152601860248201527f476f7665726e6f723a206f6e6c79476f7665726e616e636500000000000000006044820152606401610ae5565b30611403610954565b6001600160a01b0316146114405760008036604051611423929190613705565b604051809103902090505b8061143960026118a2565b0361142e57505b6114828483838080601f01602080910402602001604051908101604052809392919081815260200183838082843760009201919091525088925061218e915050565b5050505050565b6000848484846040516020016114a29493929190613905565b60408051601f19818403018152919052805160209091012095945050505050565b6114cb610954565b6001600160a01b0316336001600160a01b03161461152b5760405162461bcd60e51b815260206004820152601860248201527f476f7665726e6f723a206f6e6c79476f7665726e616e636500000000000000006044820152606401610ae5565b30611534610954565b6001600160a01b0316146115715760008036604051611554929190613705565b604051809103902090505b8061156a60026118a2565b0361155f57505b610b3d816121b4565b60006111e6838361159660408051602081019091526000815290565b61205e565b6115a3610954565b6001600160a01b0316336001600160a01b0316146116035760405162461bcd60e51b815260206004820152601860248201527f476f7665726e6f723a206f6e6c79476f7665726e616e636500000000000000006044820152606401610ae5565b3061160c610954565b6001600160a01b031614611649576000803660405161162c929190613705565b604051809103902090505b8061164260026118a2565b0361163757505b610b3d8161226b565b6000610978826122ac565b60006001600160e01b031982167f6e665ced000000000000000000000000000000000000000000000000000000001480610978575061097882612369565b60006109786116a8612438565b836040517f19010000000000000000000000000000000000000000000000000000000000006020820152602281018390526042810182905260009060620160405160208183030381529060405280519060200120905092915050565b60008060006117158787878761255f565b91509150610f748161264c565b600085815260016020819052604082209061173c88611038565b600781111561174d5761174d6132f5565b146117c05760405162461bcd60e51b815260206004820152602360248201527f476f7665726e6f723a20766f7465206e6f742063757272656e746c792061637460448201527f69766500000000000000000000000000000000000000000000000000000000006064820152608401610ae5565b6040805160208101909152815467ffffffffffffffff16908190526000906117ea9088908661205e565b90506117f98888888488612802565b835160000361184e57866001600160a01b03167fb8e138887d0aa13bab447e82de9d5c1777041ecd21ca36ba824ff1e6c07ddda4898884896040516118419493929190613950565b60405180910390a261102d565b866001600160a01b03167fe2babfbac5889a709b63bb7f598b324e08bc5a4fb9ec647fb3cbc9ec07eb8712898884898960405161188f959493929190613978565b60405180910390a2979650505050505050565b60006118bd8254600f81810b600160801b909204900b131590565b156118f4576040517f3db2a12a00000000000000000000000000000000000000000000000000000000815260040160405180910390fd5b508054600f0b6000818152600180840160205260408220805492905583547fffffffffffffffffffffffffffffffff000000000000000000000000000000001692016fffffffffffffffffffffffffffffffff169190911790915590565b60648111156119ef5760405162461bcd60e51b815260206004820152604360248201527f476f7665726e6f72566f74657351756f72756d4672616374696f6e3a2071756f60448201527f72756d4e756d657261746f72206f7665722071756f72756d44656e6f6d696e6160648201527f746f720000000000000000000000000000000000000000000000000000000000608482015260a401610ae5565b600880549082905560408051828152602081018490527f0553476bf02ef2726e8ce5ced78d63e26e602e4a2257b1f559418e24b4633997910160405180910390a15050565b30611a3d610954565b6001600160a01b0316146114825760005b8451811015611acd57306001600160a01b0316858281518110611a7357611a736139be565b60200260200101516001600160a01b031603611abd57611abd838281518110611a9e57611a9e6139be565b602002602001015180519060200120600261299a90919063ffffffff16565b611ac6816139d4565b9050611a4e565b505050505050565b61148285858585856129df565b30611aeb610954565b6001600160a01b03161461148257600254600f81810b600160801b909204900b1315611482576000600255611482565b60006111cd85858585611b3960408051602081019091526000815290565b611722565b600080611b4a83612a6c565b90506004816007811115611b6057611b606132f5565b14611b6b5792915050565b6000838152600a602052604090205480611b86575092915050565b6009546040517f2ab0f529000000000000000000000000000000000000000000000000000000008152600481018390526001600160a01b0390911690632ab0f52990602401602060405180830381865afa158015611be8573d6000803e3d6000fd5b505050506040513d601f19601f82011682018060405250810190611c0c91906139ed565b15611c1b575060079392505050565b6009546040517f584b153e000000000000000000000000000000000000000000000000000000008152600481018390526001600160a01b039091169063584b153e90602401602060405180830381865afa158015611c7d573d6000803e3d6000fd5b505050506040513d601f19601f82011682018060405250810190611ca191906139ed565b15611cb0575060059392505050565b5060029392505050565b60045460408051918252602082018390527fc565b045403dc03c2eea82b81a0465edad9e2e7fc4d97e11421c209da93d7a93910160405180910390a1600455565b6000611d05611357565b611d1433610896600143613a0f565b1015611d885760405162461bcd60e51b815260206004820152603160248201527f476f7665726e6f723a2070726f706f73657220766f7465732062656c6f77207060448201527f726f706f73616c207468726573686f6c640000000000000000000000000000006064820152608401610ae5565b6000611d9d8686868680519060200120611489565b90508451865114611dfa5760405162461bcd60e51b815260206004820152602160248201527f476f7665726e6f723a20696e76616c69642070726f706f73616c206c656e67746044820152600d60fb1b6064820152608401610ae5565b8351865114611e555760405162461bcd60e51b815260206004820152602160248201527f476f7665726e6f723a20696e76616c69642070726f706f73616c206c656e67746044820152600d60fb1b6064820152608401610ae5565b6000865111611ea65760405162461bcd60e51b815260206004820152601860248201527f476f7665726e6f723a20656d7074792070726f706f73616c00000000000000006044820152606401610ae5565b6000818152600160209081526040918290208251918201909252815467ffffffffffffffff169081905215611f435760405162461bcd60e51b815260206004820152602160248201527f476f7665726e6f723a2070726f706f73616c20616c726561647920657869737460448201527f73000000000000000000000000000000000000000000000000000000000000006064820152608401610ae5565b6000611f55611f50610fb7565b612b7b565b611f5e43612b7b565b611f689190613a26565b90506000611f77611f5061097e565b611f819083613a26565b835467ffffffffffffffff191667ffffffffffffffff8416178455905060018301805467ffffffffffffffff191667ffffffffffffffff83161790557f7d84a6263ae0d98d3329bd7b46bb4e8d6f98cd35a7adb45c274c8b7fd5ebd5e084338b8b8d5167ffffffffffffffff811115611ffc57611ffc612e35565b60405190808252806020026020018201604052801561202f57816020015b606081526020019060019003908161201a5790505b508c88888e60405161204999989796959493929190613a52565b60405180910390a15091979650505050505050565b6040517f3a46b1a80000000000000000000000000000000000000000000000000000000081526001600160a01b038481166004830152602482018490526000917f000000000000000000000000000000000000000000000000000000000000000090911690633a46b1a890604401602060405180830381865afa1580156120e9573d6000803e3d6000fd5b505050506040513d601f19601f820116820180604052508101906111e3919061374f565b600954604080516001600160a01b03928316815291831660208301527f08f74ea46ef7894f65eabfb5e6e695de773a000b47c529ab559178069b226401910160405180910390a1600980547fffffffffffffffffffffffff0000000000000000000000000000000000000000166001600160a01b0392909216919091179055565b60606111e3848484604051806060016040528060298152602001613ba260299139612bff565b6000811161222a5760405162461bcd60e51b815260206004820152602760248201527f476f7665726e6f7253657474696e67733a20766f74696e6720706572696f642060448201527f746f6f206c6f77000000000000000000000000000000000000000000000000006064820152608401610ae5565b60055460408051918252602082018390527f7e3f7f0708a84de9203036abaa450dccc85ad5ff52f78c170f3edb55cf5e8828910160405180910390a1600555565b60065460408051918252602082018390527fccb45da8d5717e6c4544694297c4ba5cf151d455c9bb0ed4fc7a38411bc05461910160405180910390a1600655565b600060646008546040517f8e539e8c000000000000000000000000000000000000000000000000000000008152600481018590527f00000000000000000000000000000000000000000000000000000000000000006001600160a01b031690638e539e8c90602401602060405180830381865afa158015612331573d6000803e3d6000fd5b505050506040513d601f19601f82011682018060405250810190612355919061374f565b61235f9190613b44565b6109789190613b63565b60006001600160e01b031982167fbf26d8970000000000000000000000000000000000000000000000000000000014806123cc57506001600160e01b031982167f79dd796f00000000000000000000000000000000000000000000000000000000145b8061240057506001600160e01b031982167f4e2312e000000000000000000000000000000000000000000000000000000000145b8061097857507f01ffc9a7000000000000000000000000000000000000000000000000000000006001600160e01b0319831614610978565b6000306001600160a01b037f00000000000000000000000000000000000000000000000000000000000000001614801561249157507f000000000000000000000000000000000000000000000000000000000000000046145b156124bb57507f000000000000000000000000000000000000000000000000000000000000000090565b50604080517f00000000000000000000000000000000000000000000000000000000000000006020808301919091527f0000000000000000000000000000000000000000000000000000000000000000828401527f000000000000000000000000000000000000000000000000000000000000000060608301524660808301523060a0808401919091528351808403909101815260c0909201909252805191012090565b6000807f7fffffffffffffffffffffffffffffff5d576e7357a4501ddfe92f46681b20a08311156125965750600090506003612643565b8460ff16601b141580156125ae57508460ff16601c14155b156125bf5750600090506004612643565b6040805160008082526020820180845289905260ff881692820192909252606081018690526080810185905260019060a0016020604051602081039080840390855afa158015612613573d6000803e3d6000fd5b5050604051601f1901519150506001600160a01b03811661263c57600060019250925050612643565b9150600090505b94509492505050565b6000816004811115612660576126606132f5565b036126685750565b600181600481111561267c5761267c6132f5565b036126c95760405162461bcd60e51b815260206004820152601860248201527f45434453413a20696e76616c6964207369676e617475726500000000000000006044820152606401610ae5565b60028160048111156126dd576126dd6132f5565b0361272a5760405162461bcd60e51b815260206004820152601f60248201527f45434453413a20696e76616c6964207369676e6174757265206c656e677468006044820152606401610ae5565b600381600481111561273e5761273e6132f5565b036127965760405162461bcd60e51b815260206004820152602260248201527f45434453413a20696e76616c6964207369676e6174757265202773272076616c604482015261756560f01b6064820152608401610ae5565b60048160048111156127aa576127aa6132f5565b03610b3d5760405162461bcd60e51b815260206004820152602260248201527f45434453413a20696e76616c6964207369676e6174757265202776272076616c604482015261756560f01b6064820152608401610ae5565b60008581526007602090815260408083206001600160a01b0388168452600381019092529091205460ff16156128a05760405162461bcd60e51b815260206004820152602760248201527f476f7665726e6f72566f74696e6753696d706c653a20766f746520616c72656160448201527f64792063617374000000000000000000000000000000000000000000000000006064820152608401610ae5565b6001600160a01b03851660009081526003820160205260409020805460ff1916600117905560ff84166128ec57828160000160008282546128e191906138ed565b90915550611acd9050565b60001960ff85160161290c57828160010160008282546128e191906138ed565b60011960ff85160161292c57828160020160008282546128e191906138ed565b60405162461bcd60e51b815260206004820152603560248201527f476f7665726e6f72566f74696e6753696d706c653a20696e76616c696420766160448201527f6c756520666f7220656e756d20566f74655479706500000000000000000000006064820152608401610ae5565b8154600160801b90819004600f0b6000818152600180860160205260409091209390935583546fffffffffffffffffffffffffffffffff908116939091011602179055565b6009546040517fe38335e50000000000000000000000000000000000000000000000000000000081526001600160a01b039091169063e38335e5903490612a33908890889088906000908990600401613831565b6000604051808303818588803b158015612a4c57600080fd5b505af1158015612a60573d6000803e3d6000fd5b50505050505050505050565b6000818152600160205260408120600281015460ff1615612a905750600792915050565b6002810154610100900460ff1615612aab5750600292915050565b6000612ab684610f7e565b905080600003612b085760405162461bcd60e51b815260206004820152601d60248201527f476f7665726e6f723a20756e6b6e6f776e2070726f706f73616c2069640000006044820152606401610ae5565b438110612b19575060009392505050565b6000612b2485611362565b9050438110612b3857506001949350505050565b612b4185612d3c565b8015612b60575060008581526007602052604090208054600190910154115b15612b7057506004949350505050565b506003949350505050565b600067ffffffffffffffff821115612bfb5760405162461bcd60e51b815260206004820152602660248201527f53616665436173743a2076616c756520646f65736e27742066697420696e203660448201527f34206269747300000000000000000000000000000000000000000000000000006064820152608401610ae5565b5090565b606082471015612c775760405162461bcd60e51b815260206004820152602660248201527f416464726573733a20696e73756666696369656e742062616c616e636520666f60448201527f722063616c6c00000000000000000000000000000000000000000000000000006064820152608401610ae5565b6001600160a01b0385163b612cce5760405162461bcd60e51b815260206004820152601d60248201527f416464726573733a2063616c6c20746f206e6f6e2d636f6e74726163740000006044820152606401610ae5565b600080866001600160a01b03168587604051612cea9190613b85565b60006040518083038185875af1925050503d8060008114612d27576040519150601f19603f3d011682016040523d82523d6000602084013e612d2c565b606091505b509150915061102d828286612d73565b600081815260076020526040812060028101546001820154612d5e91906138ed565b612d6a61091b85610f7e565b11159392505050565b60608315612d825750816111e6565b825115612d925782518084602001fd5b8160405162461bcd60e51b8152600401610ae59190613010565b600060208284031215612dbe57600080fd5b81356001600160e01b0319811681146111e657600080fd5b803560ff81168114612de757600080fd5b919050565b60008083601f840112612dfe57600080fd5b50813567ffffffffffffffff811115612e1657600080fd5b602083019150836020828501011115612e2e57600080fd5b9250929050565b634e487b7160e01b600052604160045260246000fd5b604051601f8201601f1916810167ffffffffffffffff81118282101715612e7457612e74612e35565b604052919050565b600067ffffffffffffffff831115612e9657612e96612e35565b612ea9601f8401601f1916602001612e4b565b9050828152838383011115612ebd57600080fd5b828260208301376000602084830101529392505050565b600082601f830112612ee557600080fd5b6111e683833560208501612e7c565b60008060008060008060008060e0898b031215612f1057600080fd5b88359750612f2060208a01612dd6565b9650604089013567ffffffffffffffff80821115612f3d57600080fd5b612f498c838d01612dec565b909850965060608b0135915080821115612f6257600080fd5b50612f6f8b828c01612ed4565b945050612f7e60808a01612dd6565b925060a0890135915060c089013590509295985092959890939650565b600060208284031215612fad57600080fd5b5035919050565b60005b83811015612fcf578181015183820152602001612fb7565b83811115612fde576000848401525b50505050565b60008151808452612ffc816020860160208601612fb4565b601f01601f19169290920160200192915050565b6020815260006111e66020830184612fe4565b6001600160a01b0381168114610b3d57600080fd5b6000806000806080858703121561304e57600080fd5b843561305981613023565b9350602085013561306981613023565b925060408501359150606085013567ffffffffffffffff81111561308c57600080fd5b61309887828801612ed4565b91505092959194509250565b600067ffffffffffffffff8211156130be576130be612e35565b5060051b60200190565b600082601f8301126130d957600080fd5b813560206130ee6130e9836130a4565b612e4b565b82815260059290921b8401810191818101908684111561310d57600080fd5b8286015b8481101561313157803561312481613023565b8352918301918301613111565b509695505050505050565b600082601f83011261314d57600080fd5b8135602061315d6130e9836130a4565b82815260059290921b8401810191818101908684111561317c57600080fd5b8286015b848110156131315780358352918301918301613180565b600082601f8301126131a857600080fd5b813560206131b86130e9836130a4565b82815260059290921b840181019181810190868411156131d757600080fd5b8286015b8481101561313157803567ffffffffffffffff8111156131fb5760008081fd5b6132098986838b0101612ed4565b8452509183019183016131db565b6000806000806080858703121561322d57600080fd5b843567ffffffffffffffff8082111561324557600080fd5b613251888389016130c8565b9550602087013591508082111561326757600080fd5b6132738883890161313c565b9450604087013591508082111561328957600080fd5b5061329687828801613197565b949793965093946060013593505050565b600080600080600060a086880312156132bf57600080fd5b853594506132cf60208701612dd6565b93506132dd60408701612dd6565b94979396509394606081013594506080013592915050565b634e487b7160e01b600052602160045260246000fd5b602081016008831061332d57634e487b7160e01b600052602160045260246000fd5b91905290565b6000806040838503121561334657600080fd5b82359150602083013561335881613023565b809150509250929050565b6000806040838503121561337657600080fd5b8235915061338660208401612dd6565b90509250929050565b6000806000806000608086880312156133a757600080fd5b853594506133b760208701612dd6565b9350604086013567ffffffffffffffff808211156133d457600080fd5b6133e089838a01612dec565b909550935060608801359150808211156133f957600080fd5b5061340688828901612ed4565b9150509295509295909350565b6000806000806060858703121561342957600080fd5b8435935061343960208601612dd6565b9250604085013567ffffffffffffffff81111561345557600080fd5b61346187828801612dec565b95989497509550505050565b6000806000806080858703121561348357600080fd5b843567ffffffffffffffff8082111561349b57600080fd5b6134a7888389016130c8565b955060208701359150808211156134bd57600080fd5b6134c98883890161313c565b945060408701359150808211156134df57600080fd5b6134eb88838901613197565b9350606087013591508082111561350157600080fd5b508501601f8101871361351357600080fd5b61309887823560208401612e7c565b60008060006060848603121561353757600080fd5b833561354281613023565b925060208401359150604084013567ffffffffffffffff81111561356557600080fd5b61357186828701612ed4565b9150509250925092565b60006020828403121561358d57600080fd5b81356111e681613023565b600080600080600060a086880312156135b057600080fd5b85356135bb81613023565b945060208601356135cb81613023565b9350604086013567ffffffffffffffff808211156135e857600080fd5b6135f489838a0161313c565b9450606088013591508082111561360a57600080fd5b61361689838a0161313c565b935060808801359150808211156133f957600080fd5b6000806000806060858703121561364257600080fd5b843561364d81613023565b935060208501359250604085013567ffffffffffffffff81111561345557600080fd5b6000806040838503121561368357600080fd5b823561368e81613023565b946020939093013593505050565b600080600080600060a086880312156136b457600080fd5b85356136bf81613023565b945060208601356136cf81613023565b93506040860135925060608601359150608086013567ffffffffffffffff8111156136f957600080fd5b61340688828901612ed4565b8183823760009101908152919050565b600181811c9082168061372957607f821691505b60208210810361374957634e487b7160e01b600052602260045260246000fd5b50919050565b60006020828403121561376157600080fd5b5051919050565b600081518084526020808501945080840160005b838110156137a15781516001600160a01b03168752958201959082019060010161377c565b509495945050505050565b600081518084526020808501945080840160005b838110156137a1578151875295820195908201906001016137c0565b600081518084526020808501808196508360051b8101915082860160005b85811015613824578284038952613812848351612fe4565b988501989350908401906001016137fa565b5091979650505050505050565b60a08152600061384460a0830188613768565b828103602084015261385681886137ac565b9050828103604084015261386a81876137dc565b60608401959095525050608001529392505050565b60c08152600061389260c0830189613768565b82810360208401526138a481896137ac565b905082810360408401526138b881886137dc565b60608401969096525050608081019290925260a0909101529392505050565b634e487b7160e01b600052601160045260246000fd5b60008219821115613900576139006138d7565b500190565b6080815260006139186080830187613768565b828103602084015261392a81876137ac565b9050828103604084015261393e81866137dc565b91505082606083015295945050505050565b84815260ff841660208201528260408201526080606082015260006111b56080830184612fe4565b85815260ff8516602082015283604082015260a0606082015260006139a060a0830185612fe4565b82810360808401526139b28185612fe4565b98975050505050505050565b634e487b7160e01b600052603260045260246000fd5b6000600182016139e6576139e66138d7565b5060010190565b6000602082840312156139ff57600080fd5b815180151581146111e657600080fd5b600082821015613a2157613a216138d7565b500390565b600067ffffffffffffffff808316818516808303821115613a4957613a496138d7565b01949350505050565b60006101208b835260206001600160a01b038c1681850152816040850152613a7c8285018c613768565b91508382036060850152613a90828b6137ac565b915083820360808501528189518084528284019150828160051b850101838c0160005b83811015613ae157601f19878403018552613acf838351612fe4565b94860194925090850190600101613ab3565b505086810360a0880152613af5818c6137dc565b945050505050613b1160c084018767ffffffffffffffff169052565b67ffffffffffffffff851660e0840152828103610100840152613b348185612fe4565b9c9b505050505050505050505050565b6000816000190483118215151615613b5e57613b5e6138d7565b500290565b600082613b8057634e487b7160e01b600052601260045260246000fd5b500490565b60008251613b97818460208701612fb4565b919091019291505056fe416464726573733a206c6f772d6c6576656c2063616c6c20776974682076616c7565206661696c6564a26469706673582212203f1aa482a669292b46c5558f409bc1d797cfae9a38acde38650b4d6672b95fff64736f6c634300080f0033",
  "immutableReferences": {
    "3682": [
      {
        "length": 32,
        "start": 2354
      },
      {
        "length": 32,
        "start": 8352
      },
      {
        "length": 32,
        "start": 8930
      }
    ],
    "5169": [
      {
        "length": 32,
        "start": 9369
      }
    ],
    "5171": [
      {
        "length": 32,
        "start": 9327
      }
    ],
    "5173": [
      {
        "length": 32,
        "start": 9285
      }
    ],
    "5175": [
      {
        "length": 32,
        "start": 9452
      }
    ],
    "5177": [
      {
        "length": 32,
        "start": 9489
      }
    ],
    "5179": [
      {
        "length": 32,
        "start": 9410
      }
    ]
  },
  "source": "// SPDX-License-Identifier: MIT\npragma solidity ^0.8.0;\n\nimport \"@openzeppelin/contracts/governance/Governor.sol\";\nimport \"@openzeppelin/contracts/governance/extensions/GovernorSettings.sol\";\nimport \"@openzeppelin/contracts/governance/extensions/GovernorCountingSimple.sol\";\nimport \"@openzeppelin/contracts/governance/extensions/GovernorVotes.sol\";\nimport \"@openzeppelin/contracts/governance/extensions/GovernorVotesQuorumFraction.sol\";\nimport \"@openzeppelin/contracts/governance/extensions/GovernorTimelockControl.sol\";\n\ncontract HallaHDAO_test is Governor, GovernorSettings, GovernorCountingSimple, GovernorVotes, GovernorVotesQuorumFraction, GovernorTimelockControl {\n    constructor(IVotes _token, TimelockController _timelock)\n        Governor(\"HallaHDAO\")\n        GovernorSettings(1 /* 1 block */, 273 /* 1 hour */, 0)\n        GovernorVotes(_token)\n        GovernorVotesQuorumFraction(5)\n        GovernorTimelockControl(_timelock)\n    {}\n\n    // The following functions are overrides required by Solidity.\n\n    function votingDelay()\n        public\n        view\n        override(IGovernor, GovernorSettings)\n        returns (uint256)\n    {\n        return super.votingDelay();\n    }\n\n    function votingPeriod()\n        public\n        view\n        override(IGovernor, GovernorSettings)\n        returns (uint256)\n    {\n        return super.votingPeriod();\n    }\n\n    function quorum(uint256 blockNumber)\n        public\n        view\n        override(IGovernor, GovernorVotesQuorumFraction)\n        returns (uint256)\n    {\n        return super.quorum(blockNumber);\n    }\n\n    function state(uint256 proposalId)\n        public\n        view\n        override(Governor, GovernorTimelockControl)\n        returns (ProposalState)\n    {\n        return super.state(proposalId);\n    }\n\n    function propose(address[] memory targets, uint256[] memory values, bytes[] memory calldatas, string memory description)\n        public\n        override(Governor, IGovernor)\n        returns (uint256)\n    {\n        return super.propose(targets, values, calldatas, description);\n    }\n\n    function proposalThreshold()\n        public\n        view\n        override(Governor, GovernorSettings)\n        returns (uint256)\n    {\n        return super.proposalThreshold();\n    }\n\n    function _execute(uint256 proposalId, address[] memory targets, uint256[] memory values, bytes[] memory calldatas, bytes32 descriptionHash)\n        internal\n        override(Governor, GovernorTimelockControl)\n    {\n        super._execute(proposalId, targets, values, calldatas, descriptionHash);\n    }\n\n    function _cancel(address[] memory targets, uint256[] memory values, bytes[] memory calldatas, bytes32 descriptionHash)\n        internal\n        override(Governor, GovernorTimelockControl)\n        returns (uint256)\n    {\n        return super._cancel(targets, values, calldatas, descriptionHash);\n    }\n\n    function _executor()\n        internal\n        view\n        override(Governor, GovernorTimelockControl)\n        returns (address)\n    {\n        return super._executor();\n    }\n\n    function supportsInterface(bytes4 interfaceId)\n        public\n        view\n        override(Governor, GovernorTimelockControl)\n        returns (bool)\n    {\n        return super.supportsInterface(interfaceId);\n    }\n}\n",
  "sourcePath": "/Users/choiwonhyeok/Documents/hallah/back/contracts/Dao.sol",
  "compiler": {
    "name": "solc",
    "version": "0.8.15+commit.e14f2714.Emscripten.clang"
  },
  "schemaVersion": "3.4.8",
  "updatedAt": "2022-07-11T08:39:04.642Z",
  "devdoc": {
    "errors": {
      "Empty()": [
        {
          "details": "An operation (e.g. {front}) couldn't be completed due to the queue being empty."
        }
      ]
    },
    "kind": "dev",
    "methods": {
      "COUNTING_MODE()": {
        "details": "See {IGovernor-COUNTING_MODE}."
      },
      "castVote(uint256,uint8)": {
        "details": "See {IGovernor-castVote}."
      },
      "castVoteBySig(uint256,uint8,uint8,bytes32,bytes32)": {
        "details": "See {IGovernor-castVoteBySig}."
      },
      "castVoteWithReason(uint256,uint8,string)": {
        "details": "See {IGovernor-castVoteWithReason}."
      },
      "castVoteWithReasonAndParams(uint256,uint8,string,bytes)": {
        "details": "See {IGovernor-castVoteWithReasonAndParams}."
      },
      "castVoteWithReasonAndParamsBySig(uint256,uint8,string,bytes,uint8,bytes32,bytes32)": {
        "details": "See {IGovernor-castVoteWithReasonAndParamsBySig}."
      },
      "execute(address[],uint256[],bytes[],bytes32)": {
        "details": "See {IGovernor-execute}."
      },
      "getVotes(address,uint256)": {
        "details": "See {IGovernor-getVotes}."
      },
      "getVotesWithParams(address,uint256,bytes)": {
        "details": "See {IGovernor-getVotesWithParams}."
      },
      "hasVoted(uint256,address)": {
        "details": "See {IGovernor-hasVoted}."
      },
      "hashProposal(address[],uint256[],bytes[],bytes32)": {
        "details": "See {IGovernor-hashProposal}. The proposal id is produced by hashing the RLC encoded `targets` array, the `values` array, the `calldatas` array and the descriptionHash (bytes32 which itself is the keccak256 hash of the description string). This proposal id can be produced from the proposal data which is part of the {ProposalCreated} event. It can even be computed in advance, before the proposal is submitted. Note that the chainId and the governor address are not part of the proposal id computation. Consequently, the same proposal (with same operation and same description) will have the same id if submitted on multiple governors across multiple networks. This also means that in order to execute the same operation twice (on the same governor) the proposer will have to change the description in order to avoid proposal id conflicts."
      },
      "name()": {
        "details": "See {IGovernor-name}."
      },
      "onERC1155BatchReceived(address,address,uint256[],uint256[],bytes)": {
        "details": "See {IERC1155Receiver-onERC1155BatchReceived}."
      },
      "onERC1155Received(address,address,uint256,uint256,bytes)": {
        "details": "See {IERC1155Receiver-onERC1155Received}."
      },
      "onERC721Received(address,address,uint256,bytes)": {
        "details": "See {IERC721Receiver-onERC721Received}."
      },
      "proposalDeadline(uint256)": {
        "details": "See {IGovernor-proposalDeadline}."
      },
      "proposalEta(uint256)": {
        "details": "Public accessor to check the eta of a queued proposal"
      },
      "proposalSnapshot(uint256)": {
        "details": "See {IGovernor-proposalSnapshot}."
      },
      "proposalVotes(uint256)": {
        "details": "Accessor to the internal vote counts."
      },
      "queue(address[],uint256[],bytes[],bytes32)": {
        "details": "Function to queue a proposal to the timelock."
      },
      "quorumDenominator()": {
        "details": "Returns the quorum denominator. Defaults to 100, but may be overridden."
      },
      "quorumNumerator()": {
        "details": "Returns the current quorum numerator. See {quorumDenominator}."
      },
      "relay(address,uint256,bytes)": {
        "details": "Relays a transaction or function call to an arbitrary target. In cases where the governance executor is some contract other than the governor itself, like when using a timelock, this function can be invoked in a governance proposal to recover tokens or Ether that was sent to the governor contract by mistake. Note that if the executor is simply the governor itself, use of `relay` is redundant."
      },
      "setProposalThreshold(uint256)": {
        "details": "Update the proposal threshold. This operation can only be performed through a governance proposal. Emits a {ProposalThresholdSet} event."
      },
      "setVotingDelay(uint256)": {
        "details": "Update the voting delay. This operation can only be performed through a governance proposal. Emits a {VotingDelaySet} event."
      },
      "setVotingPeriod(uint256)": {
        "details": "Update the voting period. This operation can only be performed through a governance proposal. Emits a {VotingPeriodSet} event."
      },
      "timelock()": {
        "details": "Public accessor to check the address of the timelock"
      },
      "updateQuorumNumerator(uint256)": {
        "details": "Changes the quorum numerator. Emits a {QuorumNumeratorUpdated} event. Requirements: - Must be called through a governance proposal. - New numerator must be smaller or equal to the denominator."
      },
      "updateTimelock(address)": {
        "details": "Public endpoint to update the underlying timelock instance. Restricted to the timelock itself, so updates must be proposed, scheduled, and executed through governance proposals. CAUTION: It is not recommended to change the timelock while there are other queued governance proposals."
      },
      "version()": {
        "details": "See {IGovernor-version}."
      }
    },
    "version": 1
  },
  "userdoc": {
    "kind": "user",
    "methods": {},
    "version": 1
  }
}