{
  "contractName": "test",
  "abi": [
    {
      "inputs": [
        {
          "internalType": "string",
          "name": "_name",
          "type": "string"
        }
      ],
      "stateMutability": "nonpayable",
      "type": "constructor"
    },
    {
      "anonymous": false,
      "inputs": [
        {
          "indexed": false,
          "internalType": "string",
          "name": "name",
          "type": "string"
        },
        {
          "indexed": false,
          "internalType": "uint256",
          "name": "index",
          "type": "uint256"
        }
      ],
      "name": "nameList",
      "type": "event"
    },
    {
      "inputs": [],
      "name": "name",
      "outputs": [
        {
          "internalType": "string",
          "name": "",
          "type": "string"
        }
      ],
      "stateMutability": "view",
      "type": "function"
    },
    {
      "inputs": [],
      "name": "getBlockNum",
      "outputs": [
        {
          "internalType": "uint256",
          "name": "",
          "type": "uint256"
        }
      ],
      "stateMutability": "view",
      "type": "function"
    },
    {
      "inputs": [
        {
          "internalType": "string",
          "name": "_name",
          "type": "string"
        },
        {
          "internalType": "uint256",
          "name": "_index",
          "type": "uint256"
        }
      ],
      "name": "addList",
      "outputs": [],
      "stateMutability": "nonpayable",
      "type": "function"
    },
    {
      "inputs": [],
      "name": "getName",
      "outputs": [
        {
          "internalType": "string",
          "name": "",
          "type": "string"
        }
      ],
      "stateMutability": "view",
      "type": "function"
    }
  ],
  "bytecode": "0x608060405234801561001057600080fd5b5060405161063938038061063983398101604081905261002f91610058565b600061003b82826101b0565b505061026f565b634e487b7160e01b600052604160045260246000fd5b6000602080838503121561006b57600080fd5b82516001600160401b038082111561008257600080fd5b818501915085601f83011261009657600080fd5b8151818111156100a8576100a8610042565b604051601f8201601f19908116603f011681019083821181831017156100d0576100d0610042565b8160405282815288868487010111156100e857600080fd5b600093505b8284101561010a57848401860151818501870152928501926100ed565b8284111561011b5760008684830101525b98975050505050505050565b600181811c9082168061013b57607f821691505b60208210810361015b57634e487b7160e01b600052602260045260246000fd5b50919050565b601f8211156101ab57600081815260208120601f850160051c810160208610156101885750805b601f850160051c820191505b818110156101a757828155600101610194565b5050505b505050565b81516001600160401b038111156101c9576101c9610042565b6101dd816101d78454610127565b84610161565b602080601f83116001811461021257600084156101fa5750858301515b600019600386901b1c1916600185901b1785556101a7565b600085815260208120601f198616915b8281101561024157888601518255948401946001909101908401610222565b508582101561025f5787850151600019600388901b60f8161c191681555b5050505050600190811b01905550565b6103bb8061027e6000396000f3fe608060405234801561001057600080fd5b506004361061004c5760003560e01c806306fdde031461005157806317d7de7c1461006f5780636b29d35f146100775780637f6c6f101461008c575b600080fd5b61005961009a565b6040516100669190610244565b60405180910390f35b610059610128565b61008a610085366004610274565b6101ba565b005b604051438152602001610066565b600080546100a790610329565b80601f01602080910402602001604051908101604052809291908181526020018280546100d390610329565b80156101205780601f106100f557610100808354040283529160200191610120565b820191906000526020600020905b81548152906001019060200180831161010357829003601f168201915b505050505081565b60606000805461013790610329565b80601f016020809104026020016040519081016040528092919081815260200182805461016390610329565b80156101b05780601f10610185576101008083540402835291602001916101b0565b820191906000526020600020905b81548152906001019060200180831161019357829003601f168201915b5050505050905090565b7f82b388203b61e1cf00f428380ffff56c406b032f7fe9e5428317bbfd76ec791182826040516101eb929190610363565b60405180910390a15050565b6000815180845260005b8181101561021d57602081850181015186830182015201610201565b8181111561022f576000602083870101525b50601f01601f19169290920160200192915050565b60208152600061025760208301846101f7565b9392505050565b634e487b7160e01b600052604160045260246000fd5b6000806040838503121561028757600080fd5b823567ffffffffffffffff8082111561029f57600080fd5b818501915085601f8301126102b357600080fd5b8135818111156102c5576102c561025e565b604051601f8201601f19908116603f011681019083821181831017156102ed576102ed61025e565b8160405282815288602084870101111561030657600080fd5b826020860160208301376000602093820184015298969091013596505050505050565b600181811c9082168061033d57607f821691505b60208210810361035d57634e487b7160e01b600052602260045260246000fd5b50919050565b60408152600061037660408301856101f7565b9050826020830152939250505056fea2646970667358221220f6b0b64a93f75c7cc941f8afcf5e163c78dd8f25c72c14cbaa5950b84c5f3d3764736f6c634300080f0033",
  "immutableReferences": {},
  "source": "// SPDX-License-Identifier: MIT\npragma solidity ^0.8.4;\n\ncontract test {\n\n    string public name;\n    event nameList(string name, uint index);\n\n    constructor(string memory _name) {\n        name = _name;\n    }\n\n    function getBlockNum() public view returns(uint) {\n        return block.number;\n    }\n\n    function addList(string memory _name, uint _index) public {\n        emit nameList(_name,_index);\n    }\n\n    function getName() public view returns(string memory) {\n        return name;\n    }\n}",
  "sourcePath": "/Users/choiwonhyeok/Documents/hallah/back/contracts/test.sol",
  "compiler": {
    "name": "solc",
    "version": "0.8.15+commit.e14f2714.Emscripten.clang"
  },
  "schemaVersion": "3.4.8",
  "updatedAt": "2022-07-14T02:55:04.049Z",
  "devdoc": {
    "kind": "dev",
    "methods": {},
    "version": 1
  },
  "userdoc": {
    "kind": "user",
    "methods": {},
    "version": 1
  }
}