{
  "contractName": "VRFv2Consumer",
  "abi": [
    {
      "inputs": [
        {
          "internalType": "uint64",
          "name": "subscriptionId",
          "type": "uint64"
        }
      ],
      "stateMutability": "nonpayable",
      "type": "constructor"
    },
    {
      "inputs": [
        {
          "internalType": "address",
          "name": "have",
          "type": "address"
        },
        {
          "internalType": "address",
          "name": "want",
          "type": "address"
        }
      ],
      "name": "OnlyCoordinatorCanFulfill",
      "type": "error"
    },
    {
      "inputs": [
        {
          "internalType": "uint256",
          "name": "requestId",
          "type": "uint256"
        },
        {
          "internalType": "uint256[]",
          "name": "randomWords",
          "type": "uint256[]"
        }
      ],
      "name": "rawFulfillRandomWords",
      "outputs": [],
      "stateMutability": "nonpayable",
      "type": "function"
    },
    {
      "inputs": [
        {
          "internalType": "uint256",
          "name": "",
          "type": "uint256"
        }
      ],
      "name": "s_randomWords",
      "outputs": [
        {
          "internalType": "uint256",
          "name": "",
          "type": "uint256"
        }
      ],
      "stateMutability": "view",
      "type": "function"
    },
    {
      "inputs": [],
      "name": "s_requestId",
      "outputs": [
        {
          "internalType": "uint256",
          "name": "",
          "type": "uint256"
        }
      ],
      "stateMutability": "view",
      "type": "function"
    },
    {
      "inputs": [],
      "name": "requestRandomWords",
      "outputs": [],
      "stateMutability": "nonpayable",
      "type": "function"
    }
  ],
  "bytecode": "0x60a0604052600180546001600160a01b031916736168499c0cffcacd319c818142124b7a15e857ab1790557fd89b2bf150e3b9e13446986e571fb9cab24b13cea0a43ea20a6049a85cc807cc6002556003805466020003000186a06001600160501b031990911617905534801561007557600080fd5b506040516105a73803806105a7833981016040819052610094916100e6565b6001546001600160a01b0316608081905260008054600680546001600160a01b031916331790556001600160401b03909316600160a01b026001600160e01b0319909316909117919091179055610116565b6000602082840312156100f857600080fd5b81516001600160401b038116811461010f57600080fd5b9392505050565b6080516104706101376000396000818160b4015261011c01526104706000f3fe608060405234801561001057600080fd5b506004361061004c5760003560e01c80631fe543e314610051578063e0c8628914610066578063e89e106a1461006e578063f6eaffc814610089575b600080fd5b61006461005f36600461033e565b61009c565b005b61006461015b565b61007760055481565b60405190815260200160405180910390f35b610077610097366004610408565b610276565b3373ffffffffffffffffffffffffffffffffffffffff7f0000000000000000000000000000000000000000000000000000000000000000161461014d576040517f1cf993f400000000000000000000000000000000000000000000000000000000815233600482015273ffffffffffffffffffffffffffffffffffffffff7f000000000000000000000000000000000000000000000000000000000000000016602482015260440160405180910390fd5b6101578282610297565b5050565b60065473ffffffffffffffffffffffffffffffffffffffff16331461017f57600080fd5b6000546002546003546040517f5d3b1d30000000000000000000000000000000000000000000000000000000008152600481019290925274010000000000000000000000000000000000000000830467ffffffffffffffff166024830152640100000000810461ffff16604483015263ffffffff8082166064840152660100000000000090910416608482015273ffffffffffffffffffffffffffffffffffffffff90911690635d3b1d309060a4016020604051808303816000875af115801561024d573d6000803e3d6000fd5b505050506040513d601f19601f820116820180604052508101906102719190610421565b600555565b6004818154811061028657600080fd5b600091825260209091200154905081565b80516102aa9060049060208401906102af565b505050565b8280548282559060005260206000209081019282156102ea579160200282015b828111156102ea5782518255916020019190600101906102cf565b506102f69291506102fa565b5090565b5b808211156102f657600081556001016102fb565b7f4e487b7100000000000000000000000000000000000000000000000000000000600052604160045260246000fd5b6000806040838503121561035157600080fd5b8235915060208084013567ffffffffffffffff8082111561037157600080fd5b818601915086601f83011261038557600080fd5b8135818111156103975761039761030f565b8060051b604051601f19603f830116810181811085821117156103bc576103bc61030f565b6040529182528482019250838101850191898311156103da57600080fd5b938501935b828510156103f8578435845293850193928501926103df565b8096505050505050509250929050565b60006020828403121561041a57600080fd5b5035919050565b60006020828403121561043357600080fd5b505191905056fea2646970667358221220af36e6cec16b6f80f50edf2bd7939c893ec6c5a25c324e1c2b6a2248c76fbfd664736f6c634300080f0033",
  "immutableReferences": {
    "10": [
      {
        "length": 32,
        "start": 180
      },
      {
        "length": 32,
        "start": 284
      }
    ]
  },
  "source": "// SPDX-License-Identifier: MIT\n// An example of a consumer contract that relies on a subscription for funding.\npragma solidity ^0.8.7;\n\nimport \"@chainlink/contracts/src/v0.8/interfaces/VRFCoordinatorV2Interface.sol\";\nimport \"@chainlink/contracts/src/v0.8/VRFConsumerBaseV2.sol\";\n\n/**\n * THIS IS AN EXAMPLE CONTRACT THAT USES HARDCODED VALUES FOR CLARITY.\n * THIS IS AN EXAMPLE CONTRACT THAT USES UN-AUDITED CODE.\n * DO NOT USE THIS CODE IN PRODUCTION.\n */\n\ncontract VRFv2Consumer is VRFConsumerBaseV2 {\n  VRFCoordinatorV2Interface COORDINATOR;\n\n  // Your subscription ID.\n  uint64 s_subscriptionId;\n\n  // Rinkeby coordinator. For other networks,\n  // see https://docs.chain.link/docs/vrf-contracts/#configurations\n  address vrfCoordinator = 0x6168499c0cFfCaCD319c818142124B7A15E857ab;\n\n  // The gas lane to use, which specifies the maximum gas price to bump to.\n  // For a list of available gas lanes on each network,\n  // see https://docs.chain.link/docs/vrf-contracts/#configurations\n  bytes32 keyHash = 0xd89b2bf150e3b9e13446986e571fb9cab24b13cea0a43ea20a6049a85cc807cc;\n\n  // Depends on the number of requested values that you want sent to the\n  // fulfillRandomWords() function. Storing each word costs about 20,000 gas,\n  // so 100,000 is a safe default for this example contract. Test and adjust\n  // this limit based on the network that you select, the size of the request,\n  // and the processing of the callback request in the fulfillRandomWords()\n  // function.\n  uint32 callbackGasLimit = 100000;\n\n  // The default is 3, but you can set this higher.\n  uint16 requestConfirmations = 3;\n\n  // For this example, retrieve 2 random values in one request.\n  // Cannot exceed VRFCoordinatorV2.MAX_NUM_WORDS.\n  uint32 numWords =  2;\n\n  uint256[] public s_randomWords;\n  uint256 public s_requestId;\n  address s_owner;\n\n  constructor(uint64 subscriptionId) VRFConsumerBaseV2(vrfCoordinator) {\n    COORDINATOR = VRFCoordinatorV2Interface(vrfCoordinator);\n    s_owner = msg.sender;\n    s_subscriptionId = subscriptionId;\n  }\n\n  // Assumes the subscription is funded sufficiently.\n  function requestRandomWords() external onlyOwner {\n    // Will revert if subscription is not set and funded.\n    s_requestId = COORDINATOR.requestRandomWords(\n      keyHash,\n      s_subscriptionId,\n      requestConfirmations,\n      callbackGasLimit,\n      numWords\n    );\n  }\n\n  function fulfillRandomWords(\n    uint256, /* requestId */\n    uint256[] memory randomWords\n  ) internal override {\n    s_randomWords = randomWords;\n  }\n\n  modifier onlyOwner() {\n    require(msg.sender == s_owner);\n    _;\n  }\n}\n",
  "sourcePath": "/Users/choiwonhyeok/Documents/hallah/back/contracts/vrf.sol",
  "compiler": {
    "name": "solc",
    "version": "0.8.15+commit.e14f2714.Emscripten.clang"
  },
  "schemaVersion": "3.4.8",
  "updatedAt": "2022-07-30T07:59:22.490Z",
  "devdoc": {
    "kind": "dev",
    "methods": {},
    "version": 1
  },
  "userdoc": {
    "kind": "user",
    "methods": {},
    "notice": "THIS IS AN EXAMPLE CONTRACT THAT USES HARDCODED VALUES FOR CLARITY. THIS IS AN EXAMPLE CONTRACT THAT USES UN-AUDITED CODE. DO NOT USE THIS CODE IN PRODUCTION.",
    "version": 1
  }
}